:100000000C94FE030C942A040C942A040C942A04E5
:100010000C942A040C942A040C942A040C942A04A8
:100020000C942A040C942A040C942A040C942A0498
:100030000C942A040C942A040C942A040C942A0488
:100040000C942A040C942A040C942A040C942A0478
:100050000C942A040C942A040C942A040C94040D85
:100060000C942A040C942C0F0C9458100C942A0411
:100070000C942A040C942A040C942A040C942A0448
:100080000C942A040C942A040C942A040C942A0438
:100090000C94650F0C9497100C942A040C942A0469
:1000A0000C942A040C942A040C942A040C942A0418
:1000B0000C942A040C942A040C942A040C942A0408
:1000C0000C942A040C942A040C942A040C949E0F79
:1000D0000C94D6100C942A040C94D70F0C94151180
:1000E0000C942A0400002100240027002A002D007F
:1000F0003000330001010000040107010A01000083
:100100002200250028002B002E00310034000201BF
:100110000000050108010B0100002000230026005B
:1001200029002C002F00320000010000030106010D
:10013000090105050505070508080808020202026D
:100140000A0A080804040404010101010101010173
:100150000303030303030303040707070C0C0C0C3E
:100160000C0C0C0C02020202060606060606060627
:100170000B0B0B0B0B0B0B0B0102102020080810B4
:100180002040102040800201020108040201010207
:1001900004081020408080402010080402018004E0
:1001A000020180402010080402010804020101023B
:1001B0000408102040800102040810204080000044
:1001C000090A02080B0C0D070603040100000000D9
:1001D000000000000000000000000000000000001F
:1001E0000000000000000000000011100F000000DF
:1001F00000000000000000000000000000000000FF
:100200000000000000000000003E5B4F5B3E3E6BC4
:100210004F6B3E1C3E7C3E1C183C7E3C181C577DA0
:10022000571C1C5E7F5E1C00183C1800FFE7C3E7EC
:10023000FF0018241800FFE7DBE7FF30483A060EFE
:100240002629792926407F050507407F05253F5A45
:100250003CE73C5A7F3E1C1C08081C1C3E7F1422B5
:100260007F22145F5F005F5F06097F017F00668960
:10027000956A606060606094A2FFA29408047E04A6
:100280000810207E201008082A1C08081C2A0808CC
:100290001E101010100C1E0C1E0C30383E3830068C
:1002A0000E3E0E06000000000000005F0000000788
:1002B000000700147F147F14242A7F2A12231308B6
:1002C000646236495620500008070300001C224192
:1002D000000041221C002A1C7F1C2A08083E080836
:1002E00000807030000808080808000060600020E6
:1002F000100804023E5149453E00427F40007249C9
:100300004949462141494D331814127F102745456C
:1003100045393C4A49493141211109073649494982
:1003200036464949291E00001400000040340000F0
:100330000008142241141414141400412214080259
:10034000015909063E415D594E7C1211127C7F49CC
:100350004949363E414141227F4141413E7F494921
:1003600049417F090909013E414151737F0808084D
:100370007F00417F41002040413F017F081422411E
:100380007F404040407F021C027F7F0408107F3E78
:100390004141413E7F090909063E4151215E7F09E5
:1003A000192946264949493203017F01033F40404C
:1003B000403F1F2040201F3F4038403F6314081437
:1003C0006303047804036159494D43007F4141416F
:1003D0000204081020004141417F04020102044050
:1003E00040404040000307080020545478407F28D4
:1003F0004444383844444428384444287F385454CA
:10040000541800087E090218A4A49C787F080404EC
:100410007800447D40002040403D007F102844008B
:1004200000417F40007C047804787C08040478381C
:1004300044444438FC1824241818242418FC7C084C
:10044000040408485454542404043F44243C4040C9
:10045000207C1C2040201C3C4030403C442810287C
:10046000444C9090907C4464544C440008364100C5
:100470000000770000004136080002010204023C3F
:100480002623263C1EA1A161123A4040207A38540E
:100490005455592155557941215454784121555489
:1004A000784020545579400C1E52721239555555DA
:1004B00059395454545939555454580000457C41C5
:1004C0000002457D420001457C40F0292429F0F0DE
:1004D000282528F07C545545002054547C547C0A2F
:1004E000097F4932494949323248484832324A48FC
:1004F00048303A4141217A3A42402078009DA0A0FC
:100500007D39444444393D4040403D3C24FF24244F
:10051000487E4943662B2FFC2F2BFF0929F620C06C
:10052000887E090320545479410000447D413048BD
:10053000484A32384040227A007A0A0A727D0D1900
:10054000317D2629292F28262929292630484D4062
:1005500020380808080808080808382F10C8ACBA5E
:100560002F102834FA00007B000008142A142222DD
:10057000142A1408AA005500AAAA55AA55AA0000D0
:1005800000FF00101010FF00141414FF001010FFE3
:1005900000FF1010F010F0141414FC001414F700F5
:1005A000FF0000FF00FF1414F404FC141417101FC4
:1005B00010101F101F1414141F00101010F0000052
:1005C00000001F101010101F10101010F01000006D
:1005D00000FF101010101010101010FF100000007D
:1005E000FF140000FF00FF00001F10170000FC04B4
:1005F000F414141710171414F404F40000FF00F797
:1006000014141414141414F700F7141414171410F9
:10061000101F101F141414F4141010F010F0000028
:100620001F101F0000001F14000000FC140000F049
:1006300010F01010FF10FF141414FF141010101FEE
:1006400000000000F010FFFFFFFFFFF0F0F0F0F0FF
:10065000FFFFFF0000000000FFFF0F0F0F0F0F381C
:10066000444438447C2A2A3E147E02020606027E56
:10067000027E0263554941633844443C04407E2075
:100680001E2006027E020299A5E7A5991C2A492A86
:100690001C4C7201724C304A4D4D30304878483015
:1006A000BC625A463D3E494949007E0101017E2A0D
:1006B0002A2A2A2A44445F444440514A4440404440
:1006C0004A51400000FF0103E080FF000008086B72
:1006D0006B083612362436060F090F06000018186C
:1006E0000000001010003040FF0101001F01011E3A
:1006F00000191D1712003C3C3C3C00000000000F9C
:100700000180961180FFB103012C2DB203012C2D25
:10071000B306012C2D012C2DB40107C003A20284C5
:10072000C101C5C2020A00C3028A2AC4028AEEC5F8
:10073000010E20003601C83A0105022A0400020019
:10074000812B04000100A0022A040000007F2B047A
:100750000000009F04E010021C07123732292D29E7
:10076000252B3900010310E110031D07062E2C294B
:100770002D2E2E373F0000021013800A29806412AC
:100780000180321180FF3A81050AB1830006030A15
:10079000360108B6021502B40100C08202700AC117
:1007A0000105C2020102C5823C380AFC021115E0B3
:1007B0001009160920211B131917151E2B040502F9
:1007C0000EE1900B14081E221D181E1B1A242B0666
:1007D00006020F0A2A04000200812B040002008195
:1007E00013800A2980FF7C3C3E5E2B3D3F2F5B5DE2
:1007F0003B2C2A225C0091047F12AF1C11241FBEE7
:10080000CFEFD1E2DEBFCDBF00E00CBF13E0A0E030
:10081000B2E0ECE7F3E600E00BBF02C007900D92F8
:10082000A437B107D9F718E0A4E7B3E001C01D92DF
:10083000AC3EB107E1F717E0CCEFD7E004C0229758
:10084000FE010E94B831C63FD107C9F70E949D132F
:100850000C9424300C940000DF92EF92FF920F93DF
:100860001F93CF93DF939C0180912A03882321F467
:10087000C90137E341E04AC0C90140E050E077E3F5
:1008800011E0E9016E966AE3D62E39E8E32EDC0129
:100890001F962BE3F22E05E629C04130510569F47D
:1008A00022303105A1F41696FC92169717960C93F8
:1008B000179718961C9318970DC04230510539F4BC
:1008C0002230310521F4DE82EF82188703C0608375
:1008D000718312832F5F3F4F625F33966536E9F66F
:1008E0004F5F5F4F7B5D0F96763A99F0FC0120E0F9
:1008F00030E06FE1D2CF208331834283225F339691
:100900002536C9F70F963B5D363A19F0FC012FE109
:10091000F2CFDF91CF911F910F91FF90EF90DF9079
:10092000089584E793E066E047E028E00E946D17B1
:100930001092A4031092A5031092A8031092AA0388
:1009400008952F923F924F925F926F927F928F9273
:100950009F92AF92BF92CF92DF92EF92FF920F934E
:100960001F93CF93DF939C0180912A03882309F47E
:1009700062C049017724AEE12A2E312C220E331EAB
:10098000FFE04F2E512C420E531E52C0772059F1DA
:1009900082E0681641F591E07916A1F4F201068132
:1009A000E78088E193E064E773E040E050E020E016
:1009B00030E010E0FF24E3E0CE2ED12CB4E0AB2EEB
:1009C000B12C26C0F1010681E78082E193E064E763
:1009D00073E040E050E020E030E010E0FF24A4E0CD
:1009E000CA2ED12C12C08A818823A1F00881E98007
:1009F0008CE093E064E773E040E050E020E030E01A
:100A000010E0FF24F8E0CF2ED12CE3E1AE2EB12C84
:100A10000E94820B63942396F5E06F1609F0B6CF1F
:100A200073948FE090E0880E991E93E0791619F088
:100A3000E4016624ABCFDF91CF911F910F91FF901E
:100A4000EF90DF90CF90BF90AF909F908F907F906E
:100A50006F905F904F903F902F900895AF92BF920C
:100A6000CF92DF92EF92FF920F931F938091DC035E
:100A7000823081F52091DD032130A9F40091C40377
:100A8000E090C50388E193E064E773E040E050E064
:100A900020E030E010E0FF24B3E0CB2ED12CA3E027
:100AA000AA2EB12C3EC02230A9F40091D303E090CD
:100AB000D40382E193E064E773E040E050E020E09B
:100AC00030E010E0FF24F4E0CF2ED12CE1E1AE2E97
:100AD000B12C27C02091DD0330E090E0FC01EE0F47
:100AE000FF1FE80FF91FC901A4E0880F991FAA95FD
:100AF000E1F7821B930BE80FF91FE155FC4F0081D2
:100B0000E1808CE093E064E773E040E050E020E0B7
:100B100030E010E0FF24E8E0CE2ED12CB3E1AB2E84
:100B2000B12C0E94820B1F910F91FF90EF90DF90EC
:100B3000CF90BF90AF900895AF92BF92CF92DF92C7
:100B4000EF92FF920F931F930091DC038FE0089FB9
:100B500080011124065EE091DD0383E2E89FF0014D
:100B60001124EC5C8AEF92E064E773E0402F50E0E0
:100B70002E2F30E010E0EE2EFF24FFE0CF2ED12C00
:100B8000E0E2AE2EB12C0E94820B1F910F91FF90DC
:100B9000EF90DF90CF90BF90AF900895AF92BF924B
:100BA000CF92DF92EF92FF920F931F939FE0899F66
:100BB00080011124065E86E093E064E773E040E084
:100BC00050E020E030E010E0EAE0EE2EF12CBFE053
:100BD000CB2ED12CA0E2AA2EB12C0E94820B1F9109
:100BE0000F91FF90EF90DF90CF90BF90AF9008955E
:100BF000AF92BF92CF92DF92EF92FF920F931F932B
:100C00002FE0829F80011124065E83E2989FF0010D
:100C10001124EC5C80E093E064E773E040E050E096
:100C200020E030E010E0EE2EFF24AFE0CA2ED12C01
:100C3000F0E2AF2EB12C0E94820B1F910F91FF901A
:100C4000EF90DF90CF90BF90AF9008958091DC033C
:100C500090E02091DD0330E0FC01EE0FFF1FE80F74
:100C6000F91FC90154E0880F991F5A95E1F7821BBB
:100C7000930BE80FF91FE155FC4F8281882319F48B
:100C80000E949C0504C00E949C050E942E0564EFF2
:100C900071E080E090E00E945A0D8091DC03909119
:100CA000DD030E94F80564EF71E080E090E00E94AF
:100CB0005A0D8091DC0390E02091DD0330E0FC01CF
:100CC000EE0FFF1FE80FF91FC901B4E0880F991F4D
:100CD000BA95E1F7821B930BE80FF91FE155FC4F22
:100CE0008281882329F00E949C050E942E0502C063
:100CF0000E949C0564EF71E080E090E00E945A0D34
:100D00008091DC039091DD030E94F80564EF71E0AF
:100D100080E090E00E945A0D0895EF92FF920F93A9
:100D20001F9380912B0390912C03009761F1019701
:100D300090932C0380932B0384E793E06FEF7FEF76
:100D40000E94671784E793E063E770E040E050E0BB
:100D50000E94611784E793E063E770E040E050E0B1
:100D60002AE030E008E010E0EE24FF240E949F1902
:100D700060912B0370912C0384E793E04AE050E0EC
:100D80000E94951403C081E08093EF031F910F919F
:100D9000FF90EF9008959F92AF92BF92CF92DF9213
:100DA000EF92FF920F931F939091DE034091DC032B
:100DB000941729F08091EE03882309F45CC1809197
:100DC0002D038823A9F00E944C0D28EE33E040E06B
:100DD00050E00E9479312093E9033093EA03409375
:100DE000EB035093EC0310922D0381E08093EE030C
:100DF0008091DE032FE0829FC0011124865E082FC0
:100E000010E00B5F1F4FE091ED03F0E07496EE0FE2
:100E1000FF1F8AEF92E064E773E0A8019F017F0162
:100E2000F4E0CF2ED12CE4E0AE2EB12C0E94820B48
:100E30008091ED03282F30E0C9014596880F991F56
:100E4000803A91050CF0FFC0220F331FC9010D97A6
:100E500065E270E00E946631882777FD8095982FC3
:100E60000E947C300E94B7300E944E30462F50E0E6
:100E70007091DE03272F30E0F901EE0FFF1FE20F24
:100E8000F31FCA0114E0880F991F1A95E1F7841B1C
:100E9000950BE80FF91FE155FC4F8281882309F477
:100EA00051C0723051F5613099F40081E18088E1E0
:100EB00093E064E773E040E050E020E030E010E0D1
:100EC000FF24B3E0CB2ED12CA3E0AA2EB12C38C046
:100ED000623099F40081E18082E193E064E773E09D
:100EE00040E050E020E030E010E0FF24F4E0CF2EBE
:100EF000D12CE1E1AE2EB12C23C0F901EE0FFF1F82
:100F0000E20FF31FCA01A4E0880F991FAA95E1F729
:100F1000841B950BE80FF91FE155FC4F0081E18020
:100F20008CE093E064E773E040E050E020E030E0E4
:100F300010E0FF24F8E0CF2ED12CE3E1AE2EB12C4F
:100F40000E94820B8091DE03BFE09B2E899DC00131
:100F50001124865E082F10E00B5F1F4FE091ED0318
:100F6000F0E07596EE0FFF1F8EE193E064E773E00B
:100F700040E050E020E030E07F01F4E0CF2ED12CC3
:100F8000E4E0AE2EB12C0E94820B2091ED032F5F86
:100F90002093ED039091DE038091DC03981709F014
:100FA000B1C0422F50E04B5E5F4F440F551F809100
:100FB000DD0323E2829FC00111248C5C90E048177E
:100FC00059070CF49FC08096841795070CF49AC0BB
:100FD0008AE196E060E072E00E94A9148091DE034D
:100FE000899DC0011124865E082F10E00B5F1F4F02
:100FF000E091ED03F0E07496EE0FFF1F8AEF92E0B0
:1010000064E773E0A8019F017F010E94820B0E94A8
:101010004C0D28EE33E040E050E00E9479312093FF
:10102000E1033093E2034093E3035093E40381E050
:1010300080932D031092ED031092EE030E9426067A
:101040000E948D065FC00E944C0D28EE33E040E008
:1010500050E00E9479312093E1033093E203409302
:10106000E3035093E40381E080932D031092ED039A
:101070001092EE0347C0292F30E0C901841B91096B
:101080008901A4E0000F111FAA95E1F718161906AF
:10109000DCF4021B130B065E8AEF92E064E773E058
:1010A000402F50E02AE030E010E0FAE0EF2EF12C83
:1010B000EFE0CE2ED12CB0E2AB2EB12C0E94820BF1
:1010C0008091DE0381501AC0021B130B065E8AEF6B
:1010D00092E064E773E0402F50E02AE030E010E057
:1010E000AAE0EA2EF12CFFE0CF2ED12CE0E2AE2ECA
:1010F000B12C0E94820B8091DE038F5F8093DE0310
:101100000E94CE051F910F91FF90EF90DF90CF903E
:10111000BF90AF909F900895CF92DF92EF92FF9291
:101120000F931F938091DF039091E0038C599F4FA1
:101130009093E0038093DF03B4E7CB2EB3E0DB2E84
:10114000C6016FEF7FEF0E946717C6016AE270E089
:1011500040E050E00E946117C6016AE270E040E0A2
:1011600050E02EE130E008E010E0EE24FF240E9481
:101170009F196091DF037091E003C6014AE050E0DF
:101180000E9495141F910F91FF90EF90DF90CF90E8
:1011900008954F925F926F927F928F929F92AF923B
:1011A000BF92CF92DF92EF92FF920F931F93CF9354
:1011B000DF938091EF03882309F071C18091F003E0
:1011C000882309F08BC1809124030E94D00C00D0A9
:1011D0000F92AA2797FDA095BA2F1AE0612E712CC5
:1011E000812C912CEDB7FEB761827282838294824A
:1011F000BC01CD0120E030E040E050E0FFEFEF2EF9
:10120000F3E0FF2E012D112DE6EFAE2EEFEFBE2EF7
:10121000EFEFCE2EEFEFDE2E0E94BC142B010F90CD
:101220000F900F900F90809126030E94D00C00D059
:101230000F92AA2797FDA095BA2FEDB7FEB761824E
:10124000728283829482BC01CD0120E030E040E0D4
:1012500050E00E94BC14EB010F900F900F900F9084
:101260008091AB039091AC038415950541F4809176
:10127000AD039091AE038C179D0709F4BEC0809119
:10128000DC0390E057FE03C02FEF3FEF06C0920152
:101290004114510411F021E030E0280F391F2F5F75
:1012A0003F4F09F49EC057FE03C02FEF3FEF06C02B
:1012B00092014114510411F021E030E0820F931F9C
:1012C00005970CF08EC08091DD0390E0D7FF03C03E
:1012D0002FEF3FEF05C09E01209711F021E030E095
:1012E000280F391F2F5F3F4F09F47BC0D7FF03C082
:1012F0002FEF3FEF05C09E01209711F021E030E075
:10130000820F931F03970CF06CC00E949C054091C4
:10131000DD03242F30E05091DC03852F90E0FC01A9
:10132000EE0FFF1FE80FF91FC90114E0880F991F86
:101330001A95E1F7821B930BE80FF91FE155FC4F5B
:101340008281882379F1523059F5442349F1008193
:10135000413091F4E18088E193E064E773E040E09C
:1013600050E020E030E010E0FF24B3E0CB2ED12CA1
:10137000A4E0AA2EB12C11C0E18082E193E064E7E1
:1013800073E040E050E020E030E010E0FF24F4E0C3
:10139000CF2ED12CE3E1AE2EB12C0E94820B02C0E5
:1013A0000E942E058091DC0357FE03C06FEF7FEF94
:1013B00006C0B2014114510411F061E070E0860FE3
:1013C0008093DC038091DD03D7FF03C06FEF7FEFD5
:1013D00005C0BE01209711F061E070E0860F809398
:1013E000DD038091DC039091DD030E94F80564E643
:1013F00070E080E090E00E945A0D809128030E94E6
:10140000FB0E892BE9F42091DD0330E08091DC03B1
:1014100090E0FC01EE0FFF1FE80FF91FC90114E077
:10142000880F991F1A95E1F7821B930BE80FF91F9C
:10143000E155FC4F8281882319F012820E948C08AA
:101440008091DF039091E0038C5D954019F481E079
:101450008093F0030E944C0D28EE33E040E050E012
:101460000E9479318091E1039091E203A091E3031E
:10147000B091E403281B390B4A0B5B0B2093E50367
:101480003093E6034093E7035093E803243031059B
:101490004105510508F442C00E94CB063FC084E7D5
:1014A00093E060E040E020E00E94171ABC0184E76E
:1014B00093E00E94511884E793E069E270E046E40B
:1014C00050E00E94611784E793E060E078EF0E94AB
:1014D000671784E793E06EE072E01EC084E793E054
:1014E00060E040E020E00E94171ABC0184E793E02E
:1014F0000E94511884E793E069E270E046E450E00E
:101500000E94611784E793E060EE77E00E9467171E
:1015100084E793E068E172E00E94A914DF91CF9123
:101520001F910F91FF90EF90DF90CF90BF90AF9001
:101530009F908F907F906F905F904F900895AF92A3
:10154000BF92CF92DF92EF92FF920F931F938AE1A7
:1015500096E040E855E260E070E00E94541184E7B4
:1015600093E061E00E94491B8AE196E061E272E04B
:101570000E94A61486E996E065E00E94141F882365
:1015800039F48AE196E069E372E00E94A914B1C0DF
:101590008AE196E061E472E00E94A9148FE993E089
:1015A00061E045E00E947921882339F48AE196E0E0
:1015B00065E472E00E94A914FFCF8091280360E0E7
:1015C0000E94150E8091280361E00E94C80E8FEAE8
:1015D00093E00E942C0484E793E060E040E020E088
:1015E0000E94171ABC0184E793E00E9451188AEF09
:1015F00092E064E773E040E050E028E030E000E093
:1016000010E0A8E0EA2EF12CF0E8CF2ED12CE0EA91
:10161000AE2EB12C0E94820B84E793E060E070E074
:1016200048E050E020E830E00FEF1FEF0E944D1936
:1016300084E793E066E070E040E050E00E946117CC
:1016400084E793E06FEF7FEF0E94671784E793E0F2
:1016500066E672E00E94A61484E793E06AE270E016
:1016600040E050E00E94611784E793E06EE672E08C
:101670000E94A61484E793E06FE470E040E050E03D
:101680000E94611784E793E060E772E00E94A6146D
:1016900084E793E063E770E040E050E00E94611768
:1016A00084E793E067E772E00E94A6148FEA93E074
:1016B0000E94A10482E08093DC038093DD03809389
:1016C000DE030E94CE058091DC039091DD030E9431
:1016D000F8050E944C0D28EE33E040E050E00E94F7
:1016E00079312093E1033093E2034093E303509375
:1016F000E4031F910F91FF90EF90DF90CF90BF9088
:10170000AF9008952F923F924F925F926F927F9287
:101710008F929F92AF92BF92CF92DF92EF92FF9201
:101720000F931F93DF93CF93CDB7DEB7C654D0404E
:101730000FB6F894DEBF0FBECDBF98AF8FAB7AAFB8
:1017400069AF5CAF4BAF4901F02E1601BEAEADAE36
:101750008DB79EB721969FAF8EAF2197CE01019690
:101760000E946C1BAFA9B8AD4D915C91CE014C9617
:1017700066E976E021E00E94EF1D8E8D9F8D9C83AF
:101780008B8388A199A1AAA1BBA18D839E83AF83DE
:10179000B8878CA19DA1AEA1BFA189879A87AB878D
:1017A000BC87DE011D96FE01B8968DE001900D927A
:1017B0008150E1F78DA99EA99B8F8A8F2E010894F5
:1017C000411C511CC2010E94C11B182FCE014C9616
:1017D0000E947F1B1123A1F48AE196E06DEC72E078
:1017E0000E94A614EFA9F8AD608171818AE196E0AC
:1017F0000E94A6148AE196E067E20E94F613A9C04F
:101800002F2D2150220D0E2D0150FDAD0F0F89AD52
:101810009AAD6F2D4E2D0E940D183101660C771C6C
:101820005401CC24DD2488249924C201542C492E4F
:10183000ABADBCADCD01A0E0B0E027968CAF9DAFC5
:10184000AEAFBFAF279778C0FDB6EEB62296FFAE1B
:1018500022972396EFAE23978DB79EB786199709E7
:101860000FB6F8949EBF0FBE8DBF0DB71EB70F5FAA
:101870001F4FAFA9B8AD12962D913C91139740E040
:1018800050E0C601B5010E943331AB01BC0127967F
:101890008CAD9DADAEADBFAD2797480F591F6A1FE8
:1018A0007B1F440F551F661F771F852D942D0E94A7
:1018B000E01B852D942DB801A3010E94F21B861513
:1018C000970519F4EE24FF2420C08AE196E06EED1E
:1018D00072E00E94A914852D942D0E94CE1B8F2D9D
:1018E0009E2D9C010FB6F8943EBF0FBE2DBF31C098
:1018F000D8017C9111966C9189AD9AAD0E948D189A
:101900000894E11CF11C0E5F1F4FE214F30480F3F6
:1019100022968FAD229723969FAD23979C010FB6F9
:10192000F8943EBF0FBE2DBF0894811C911C0894F3
:10193000A11CB11CC11CD11CEDADFEAD8E169F06C5
:1019400008F482CF852D942D0E94CE1B852D942DD9
:1019500002C0CE0101960E947F1B21968EAD9FADE5
:1019600021970FB6F8949EBF0FBE8DBFCA5BDF4FA5
:101970000FB6F894DEBF0FBECDBFCF91DF911F91A0
:101980000F91FF90EF90DF90CF90BF90AF909F901E
:101990008F907F906F905F904F903F902F90089521
:1019A000382F863308F0365320917B00832F86959D
:1019B0008695869590E08170907043E0880F991F1E
:1019C0004A95E1F7277F282B20937B003770809181
:1019D0002E038295880F880F807C832B80937C0058
:1019E00080917A00806480937A0080917A0086FDED
:1019F000FCCF2091780040917900942F80E030E076
:101A0000282B392BC90108951F920F920FB60F9200
:101A100011242F933F938F939F93AF93BF93809104
:101A2000F5039091F603A091F703B091F80330917C
:101A3000F9030196A11DB11D232F2D5F2D3720F035
:101A40002D570196A11DB11D2093F9038093F50335
:101A50009093F603A093F703B093F8038091F103FA
:101A60009091F203A091F303B091F4030196A11DAC
:101A7000B11D8093F1039093F203A093F303B0930D
:101A8000F403BF91AF919F918F913F912F910F9050
:101A90000FBE0F901F9018958FB7F8942091F50303
:101AA0003091F6034091F7035091F8038FBFB901CD
:101AB000CA0108959B01AC017FB7F8948091F103AE
:101AC0009091F203A091F303B091F40366B5A89B43
:101AD00005C06F3F19F00196A11DB11D7FBFBA2F40
:101AE000A92F982F8827860F911DA11DB11D62E097
:101AF000880F991FAA1FBB1F6A95D1F7BC012DC083
:101B0000FFB7F8948091F1039091F203A091F30351
:101B1000B091F403E6B5A89B05C0EF3F19F001961C
:101B2000A11DB11DFFBFBA2FA92F982F88278E0F97
:101B3000911DA11DB11DE2E0880F991FAA1FBB1FB7
:101B4000EA95D1F7861B970B885E9340C8F2215027
:101B500030404040504068517C4F211531054105CF
:101B6000510571F60895789484B5826084BD84B57A
:101B7000816084BD85B5826085BD85B5816085BD88
:101B8000EEE6F0E0808181608083E1E8F0E01082A1
:101B9000808182608083808181608083E0E8F0E0E2
:101BA000808181608083E1EBF0E0808184608083CC
:101BB000E0EBF0E0808181608083E1E9F0E080810A
:101BC00082608083808181608083E0E9F0E08081B1
:101BD00081608083E1EAF0E080818260808380819F
:101BE00081608083E0EAF0E0808181608083E1E2CF
:101BF000F1E0808182608083808181608083E0E287
:101C0000F1E0808181608083EAE7F0E08081846098
:101C100080838081826080838081816080838081F5
:101C2000806880831092C1000895CF93DF93482F7E
:101C300050E0CA0188589E4FFC0134914E5C5E4FC3
:101C4000FA018491882369F190E0880F991FFC01C3
:101C5000EC51FF4FA591B491FC01E250FF4FC591AB
:101C6000D491662351F42FB7F8948C91932F9095CB
:101C700089238C93888189230BC0623061F42FB74C
:101C8000F8948C91932F909589238C938881832B42
:101C900088832FBF06C09FB7F8948C91832B8C93B9
:101CA0009FBFDF91CF910895893009F449C08A30F0
:101CB000A0F4843051F1853040F4823079F18330E2
:101CC00000F5813009F063C026C0873079F1883093
:101CD00098F5863009F05BC025C08D3009F442C00C
:101CE0008E3028F48B30B1F18C30C0F52DC08031AE
:101CF00009F442C0813109F445C08F3009F047C072
:101D000037C0809180008F7703C0809180008F7DE5
:101D100080938000089584B58F7702C084B58F7D4D
:101D200084BD08958091B0008F7703C08091B0008A
:101D30008F7D8093B0000895809190008F7707C0C9
:101D4000809190008F7D03C080919000877F809369
:101D5000900008958091A0008F7707C08091A00027
:101D60008F7D03C08091A000877F8093A00008959D
:101D7000809120018F7703C0809120018F7D809317
:101D80002001089580912001877F8093200108958C
:101D9000FF920F931F93F62E482F50E0CA018254F2
:101DA0009E4FFC012491CA0188589E4FFC0114915A
:101DB0004E5C5E4FFA0104910023C9F0222319F012
:101DC000822F0E94540EE02FF0E0EE0FFF1FE25032
:101DD000FF4FA591B4919FB7F894FF2021F48C9107
:101DE0001095812302C08C91812B8C939FBF1F91F2
:101DF0000F91FF9008950F931F93482F50E0CA0151
:101E000082549E4FFC012491CA0188589E4FFC01C8
:101E100004914E5C5E4FFA011491112319F420E0F5
:101E200030E015C0222319F0822F0E94540E812F1A
:101E300090E0880F991F885E9E4FFC01A591B49198
:101E40008C9120E030E0802311F021E030E0C901E6
:101E50001F910F91089508951F920F920FB60F9240
:101E60000BB60F9211242F933F934F938F939F9311
:101E7000EF93FF934091C60020913A0430913B04C8
:101E80002F5F3F4F2F73307080913C0490913D0441
:101E90002817390759F0E0913A04F0913B04E650D5
:101EA000FC4F408330933B0420933A04FF91EF9121
:101EB0009F918F914F913F912F910F900BBE0F905B
:101EC0000FBE0F901F90189508951F920F920FB696
:101ED0000F920BB60F9211242F933F934F938F9332
:101EE0009F93EF93FF934091CE002091C2043091D5
:101EF000C3042F5F3F4F2F7330708091C4049091C3
:101F0000C5042817390759F0E091C204F091C304C1
:101F1000EE57FB4F40833093C3042093C204FF91DC
:101F2000EF919F918F914F913F912F910F900BBE09
:101F30000F900FBE0F901F90189508951F920F924B
:101F40000FB60F920BB60F9211242F933F934F931E
:101F50008F939F93EF93FF934091D60020914A0572
:101F600030914B052F5F3F4F2F73307080914C05A0
:101F700090914D052817390759F0E0914A05F091E5
:101F80004B05E65FFA4F408330934B0520934A059B
:101F9000FF91EF919F918F914F913F912F910F90D2
:101FA0000BBE0F900FBE0F901F90189508951F92B3
:101FB0000F920FB60F920BB60F9211242F933F93EF
:101FC0004F938F939F93EF93FF934091360120910E
:101FD000D2053091D3052F5F3F4F2F733070809122
:101FE000D4059091D5052817390759F0E091D2050D
:101FF000F091D305EE56FA4F40833093D3052093EA
:10200000D205FF91EF919F918F914F913F912F9129
:102010000F900BBE0F900FBE0F901F901895E09180
:102020002606F0912706E05CFF4F81919191208177
:102030003181821B930B8F739070892B11F00E945A
:102040002B0FE0914506F0914606E05CFF4F819131
:10205000919120813181821B930B8F739070892B1A
:1020600011F00E94640FE0916406F0916506E05C57
:10207000FF4F8191919120813181821B930B8F734E
:102080009070892B11F00E949D0FE0918306F091D2
:102090008406E05CFF4F8191919120813181821B08
:1020A000930B8F739070892B11F00E94D60F0895B7
:1020B0001F920F920FB60F920BB60F9211242F930F
:1020C0003F938F939F93EF93FF9320917E043091E2
:1020D0007F0480918004909181042817390731F49E
:1020E0008091C1008F7D8093C10014C0E091800475
:1020F000F0918104E25CFB4F2081809180049091FB
:10210000810401968F739070909381048093800472
:102110002093C600FF91EF919F918F913F912F9156
:102120000F900BBE0F900FBE0F901F9018951F922F
:102130000F920FB60F920BB60F9211242F933F936D
:102140008F939F93EF93FF9320910605309107059E
:1021500080910805909109052817390731F480917D
:10216000C9008F7D8093C90014C0E0910805F091EB
:102170000905EA53FB4F20818091080590910905DC
:1021800001968F73907090930905809308052093B2
:10219000CE00FF91EF919F918F913F912F910F90E2
:1021A0000BBE0F900FBE0F901F9018951F920F92AD
:1021B0000FB60F920BB60F9211242F933F938F936C
:1021C0009F93EF93FF9320918E0530918F0580911F
:1021D0009005909191052817390731F48091D1002D
:1021E0008F7D8093D10014C0E0919005F09191050E
:1021F000E25BFA4F208180919005909191050196C4
:102200008F73907090939105809390052093D600E2
:10221000FF91EF919F918F913F912F910F900BBE66
:102220000F900FBE0F901F9018951F920F920FB630
:102230000F920BB60F9211242F933F938F939F937E
:10224000EF93FF93209116063091170680911806A0
:10225000909119062817390731F4809131018F7D4B
:102260008093310114C0E0911806F0911906EA52EA
:10227000FA4F2081809118069091190601968F736C
:102280009070909319068093180620933601FF9161
:10229000EF919F918F913F912F910F900BBE0F90D7
:1022A0000FBE0F901F901895AF92BF92DF92EF92E2
:1022B000FF920F931F93CF93DF93EC017A018B0171
:1022C000DD24403081EE580780E0680780E0780721
:1022D00011F0DD24D39491E0A92EB12CEC89FD8975
:1022E000DD2069F0C5010E8C02C0880F991F0A9489
:1022F000E2F7808360E079E08DE390E005C0108232
:1023000060E874E88EE190E0A80197010E947931BD
:10231000215030404040504056954795379527957D
:1023200080E12030380720F0DD2011F0DD24D6CF09
:10233000E889F9893083EA89FB892083EE89FF895E
:10234000408121E030E0C9010A8C02C0880F991F4A
:102350000A94E2F7482B4083EE89FF894081C90146
:102360000B8C02C0880F991F0A94E2F7482B408318
:10237000EE89FF894081C9010C8C02C0880F991F2A
:102380000A94E2F7482B4083EE89FF8980810D8C07
:1023900002C0220F331F0A94E2F7209528232083DE
:1023A000DF91CF911F910F91FF90EF90DF90BF9041
:1023B000AF900895DC011C96ED91FC911D97E05CB7
:1023C000FF4F2191319180819181281B390B2F730F
:1023D0003070C9010895DC011C96ED91FC911D97A8
:1023E000E05CFF4F20813181E054F040DF01AE5BC3
:1023F000BF4F8D919C9111972817390719F42FEF32
:102400003FEF07C08D919C91E80FF91F8081282F25
:1024100030E0C9010895DC011C96ED91FC911D97F7
:10242000E05CFF4F20813181E054F040DF01AE5B82
:10243000BF4F8D919C9111972817390719F42FEFF1
:102440003FEF10C08D919C911197E80FF91F2081EB
:102450008D919C91119701968F73907011969C931A
:102460008E9330E0C9010895FC0186859785DC01D3
:10247000A05CBF4FFC01EE5BFF4F2D913C9111978B
:102480008081918128173907C1F70895CF93DF9391
:10249000EC01EE85FF85E05CFF4F20813181E05447
:1024A000F0402F5F3F4F2F733070DF01AE5BBF4FA7
:1024B0008D919C91119728173907D1F3E05CFF4F5C
:1024C00080819181E054F040E80FF91F6083EE8530
:1024D000FF85E05CFF4F31832083EE89FF892081F7
:1024E00081E090E00D8C02C0880F991F0A94E2F7FA
:1024F000282B208381E090E0DF91CF9108951F93F6
:1025000010921D0610921C0628EE33E040E050E0C9
:1025100020931E0630931F064093200650932106F9
:1025200067E373E070931B0660931A068AEF93E0EB
:1025300090932706809326068EE394E090932906D5
:102540008093280685EC90E090932B0680932A06D2
:1025500084EC90E090932D0680932C0680EC90E024
:1025600090932F0680932E0681EC90E09093310695
:102570008093300686EC90E0909333068093320689
:1025800014E010933406B3E0B0933506A7E0A093AF
:102590003606F5E0F0933706E1E0E0933806109256
:1025A0003C0610923B0620933D0630933E06409336
:1025B0003F065093400670933A066093390682E8CE
:1025C00094E0909346068093450686EC94E09093C1
:1025D0004806809347068DEC90E090934A068093DE
:1025E00049068CEC90E090934C0680934B0688EC67
:1025F00090E090934E0680934D0689EC90E0909386
:10260000500680934F068EEC90E090935206809394
:10261000510610935306B0935406A0935506F093B9
:102620005606E093570610925B0610925A062093C6
:102630005C0630935D0640935E0650935F06709390
:102640005906609358068AE095E09093650680935A
:1026500064068EE495E0909367068093660685EDA8
:1026600090E0909369068093680684ED90E09093E3
:102670006B0680936A0680ED90E090936D068093E0
:102680006C0681ED90E090936F0680936E0686ED68
:1026900090E0909371068093700610937206B09349
:1026A0007306A0937406F0937506E0937606109275
:1026B0007A061092790620937B0630937C0640932D
:1026C0007D0650937E06709378066093770682E9C4
:1026D00095E0909384068093830686ED95E0909331
:1026E00086068093850685E391E090938806809323
:1026F000870684E391E090938A068093890680E3BD
:1027000091E090938C0680938B0681E391E0909307
:102710008E0680938D0686E391E0909390068093D9
:102720008F0610939106B0939206A0939306F093B0
:102730009406E09395061F910895CF93DF930E942E
:10274000B30D0E949F0ACFE0D0E10E94C9082097F4
:10275000E1F30E940F10F9CFCF92DF92EF92FF9238
:102760000F931F93CF93DF937C016B018A01C0E02D
:10277000D0E00FC0D6016D916D01D701ED91FC91B4
:102780000190F081E02DC7011995C80FD91F0150A4
:1027900010400115110571F7CE01DF91CF911F9106
:1027A0000F91FF90EF90DF90CF900895EF92FF92FE
:1027B0000F931F938C01DC01ED91FC910190F0814E
:1027C000E02D6DE019957C01D801ED91FC9101900F
:1027D000F081E02DC8016AE019959C012E0D3F1D86
:1027E000C9011F910F91FF90EF900895EF92FF9212
:1027F0000F931F937C01DC01ED91FC910190F0811E
:10280000E02D19958C01C7010E94D613080F191FDE
:10281000C8011F910F91FF90EF900895CF93DF9320
:10282000DB010D900020E9F71197A61BB70BEC0117
:10283000E881F9810280F381E02DAD011995DF91E6
:10284000CF9108954F925F927F928F929F92AF9215
:10285000BF92CF92DF92EF92FF920F931F93DF937D
:10286000CF93CDB7DEB7A1970FB6F894DEBF0FBEFA
:10287000CDBF2C01742ECB01223008F42AE019A21E
:1028800031E2C32ED12CCC0EDD1E822E9924AA2437
:10289000BB24672D752FA50194010E947931790120
:1028A0008A01C801B701A50194010E943331472D67
:1028B000461B0894C108D1084A3014F4405D01C099
:1028C000495CF6014083E114F1040105110521F092
:1028D0007E2C5F2DC801DDCFC201B6010E940E140F
:1028E000A1960FB6F894DEBF0FBECDBFCF91DF919A
:1028F0001F910F91FF90EF90DF90CF90BF90AF901E
:102900009F908F907F905F904F900895DC012115EC
:10291000310541F4ED91FC910190F081E02D642F9F
:10292000199508950E9422140895EF92FF920F9333
:102930001F939A017B0100E010E0B801A7010E94FB
:1029400086141F910F91FF90EF9008950E940E142E
:102950000895EF92FF920F931F937C010E940E1433
:102960008C01C7010E94D613080F191FC8011F91BF
:102970000F91FF90EF9008952F923F924F925F92A8
:102980006F927F928F929F92AF92BF92CF92DF927F
:10299000EF92FF920F931F93DF93CF93CDB7DEB7E4
:1029A0003B014C0119012A016E897F89888D998D1F
:1029B0006A197B098C099D09621A730A840A950AAF
:1029C000A40193010E943331E218F30804091509A8
:1029D000A80197010E949B312A0D3B1D4C1D5D1DD6
:1029E000B901CA01CF91DF911F910F91FF90EF9034
:1029F000DF90CF90BF90AF909F908F907F906F901F
:102A00005F904F903F902F900895FC0175836483F1
:102A1000718760875783468353874287158A158657
:102A200014861786168621E0248B8FEF9FEF938BF9
:102A3000828B918B808B268B08952F923F924F92A1
:102A40005F926F927F928F929F92AF92BF92CF923E
:102A5000DF92EF92FF920F931F93DF93CF9300D0FB
:102A60000F92CDB7DEB73C017C836B836A015901BD
:102A7000FA82E982222433249801241B350B37FF84
:102A800003C0309521953F4FC5014B815C81841B6C
:102A9000950B97FF03C0909581959F4F82179307E1
:102AA0005CF481E0282E312CC601CB80DC809C8335
:102AB0008B83C80185015C018B819C81A816B906B6
:102AC00044F4C501AB80BC809C838B83C801860124
:102AD0006C012501AB81BC814A1A5B0A7801EC18B4
:102AE000FD08F7FE04C0F094E194F108F394C016D9
:102AF000D10624F088248A94982C03C0B1E08B2E50
:102B0000912CC20162E070E00E9466318B0125C009
:102B1000D301ED91FC912114310441F00480F58141
:102B2000E02DC301B6014B815C8107C00480F581B3
:102B3000E02DC3016B817C81A60129813A81199521
:102B40000E191F0917FF04C0C80CD91C040D151D50
:102B5000EB81FC813196FC83EB834B815C81A41675
:102B6000B506B4F60F900F900F900F90CF91DF91B4
:102B70001F910F91FF90EF90DF90CF90BF90AF909B
:102B80009F908F907F906F905F904F903F902F908D
:102B900008954F925F926F927F928F929F92AF9221
:102BA000BF92CF92DF92EF92FF920F931F936C012F
:102BB0005B014A0139012801DC01ED91FC9104849B
:102BC000F585E02D87011995D601ED91FC91A401C1
:102BD00041505040440D551D0484F585E02DC6013B
:102BE000B50193011995D601ED91FC910284F3850D
:102BF000E02DC601B501A40192011995D601ED9110
:102C0000FC910894A108B108A60CB71C0284F385B6
:102C1000E02DC601B501A401920119951F910F91F4
:102C2000FF90EF90DF90CF90BF90AF909F908F90EC
:102C30007F906F905F904F9008952F923F924F92A8
:102C40005F926F927F928F929F92AF92BF92CF923C
:102C5000DF92EF92FF920F931F93DF93CF93CDB745
:102C6000DEB72F970FB6F894DEBF0FBECDBF5C0165
:102C70005E834D8318870F83FA86E986CB86DC0155
:102C800018968D919C911997681779070CF0A4C03C
:102C90001A968D919C911B97481759070CF09CC070
:102CA000EC2DF0E0FF87EE87CF01880F991F880F8A
:102CB000991F8E0F9F1F860F971F181619060CF06D
:102CC0008BC0CF01A3E0880F991FAA95E1F7840F6D
:102CD000951F181619060CF07FC085E0289FA001EB
:102CE00011245A8349832B011B011C825C815530BE
:102CF00011F480E005C0E981FA81EC5FFD4F849119
:102D00002C863D866D807E8043011B82C82EDD248B
:102D100080FF1CC0D501ED91FC91BB85B13049F419
:102D20000480F581E02DC501B201A3012F81388512
:102D300022C00088F189E02DC5016C857D85A40144
:102D40002E853F858901EF80F88423C0E985FA85C7
:102D50002F813885E217F307E9F0D501ED91FC9159
:102D6000BB85B13051F40480F581E02DC501B2017D
:102D7000A30129853A8519950DC00088F189E02DB8
:102D8000C5016C857D85A4012E853F858901E98477
:102D9000FA841995EB81EF5FEB832E853F85820ED8
:102DA000931E0894611C711CE83021F0D594C794DF
:102DB0008C2DACCF3C813F5F3C834E855F85240EDC
:102DC000351E0894411C511C89819A8101969A8371
:102DD0008983363009F08ACF2F960FB6F894DEBF7C
:102DE0000FBECDBFCF91DF911F910F91FF90EF905C
:102DF000DF90CF90BF90AF909F908F907F906F901B
:102E00005F904F903F902F900895CF92EF92FF9256
:102E10000F931F93CF93DF93EC01262F6A3061F459
:102E20002C8930E003E0220F331F0A95E1F78E85ED
:102E30009F85820F931F37C06D30C9F16C857D85EA
:102E40004E855F8508891989EA88FB88CC880E94AD
:102E50001D162C8986E0289FB00111248C859D8544
:102E6000680F791F7D876C878E89882301F1422F37
:102E700050E08AEF9FEF9C01429FC001439F900D5D
:102E8000529F900D112428853985820F931F861734
:102E900097076CF413E0440F551F1A95E1F78E85E0
:102EA0009F85840F951F9F878E871D861C8681E0D6
:102EB00090E0DF91CF911F910F91FF90EF90CF9015
:102EC0000895FC0175876487578746870895FC013C
:102ED000718B608B738B628B0895FC01138212825D
:102EE00087E493E09183808360A341A322A381E0E0
:102EF000878B14A213A20895DC0157968C915797E3
:102F0000882329F06EBD0DB407FEFDCF089530E88B
:102F100040E050E070E0832F90E08623972358969E
:102F2000ED91FC91599795962C919597892B21F0CD
:102F30008081822B808304C0808120952823208378
:102F40005A96ED91FC915B97808196969C9196970D
:102F5000892B80835A96ED91FC915B979081969690
:102F60008C91969780958923808336954F5F5F4F2C
:102F70004830510581F608950F931F938C01DC01B1
:102F80005E96ED91FC915F97908198968C919897C1
:102F90008095892380835C96ED91FC915D9790816B
:102FA00097968C91809589238083C8010E947C1715
:102FB000D8015C96ED91FC915D97808197969C91EC
:102FC000892B80831F910F9108950F931F938C017C
:102FD000DC015E96ED91FC915F97808198969C91C3
:102FE0009897892B80835C96ED91FC915D979081F9
:102FF00097968C91809589238083C8010E947C17C5
:10300000D8015C96ED91FC915D97808197969C919B
:10301000892B80831F910F910895CF92DF92EF92B9
:10302000FF920F931F937C01162FC42ED22E6AE2BB
:103030000E94BC17C70160E00E94E517F70161A577
:10304000610FC7010E94E517C70160E00E94E51704
:10305000F70161A56D0DC7010E94E517C7016BE27D
:103060000E94BC17C70160E00E94E517F70162A546
:103070006C0DC7010E94E517C70160E00E94E517CB
:10308000F70162A5600FC7010E94E517C7016CE256
:103090000E94BC171F910F91FF90EF90DF90CF908F
:1030A0000895EF92FF920F931F93CF93DF93EC015C
:1030B0007B01288521500A85015060E040E00E9494
:1030C0000D18EE8DFF8D808198A5892B8083EC8D66
:1030D000FD8D90818FA18095892380831A850EC0F4
:1030E000088509C0CE016F2D0E947C17CE016E2D80
:1030F0000E947C1701500023A9F71150112381F77A
:10310000EC8DFD8D80819FA1892B8083DF91CF91F4
:103110001F910F91FF90EF900895FF920F931F93CF
:103120008C01F62E672FDC015E96ED91FC915F9786
:10313000808198969C919897892B80835C96ED91DD
:10314000FC915D97908197968C91809589238083DF
:10315000C8010E947C17C8016F2D0E947C17D801FE
:103160005C96ED91FC915D97808197969C91892B5F
:1031700080831F910F91FF900895FF920F931F93EB
:10318000CF93DF93EC01F22E132F77FD2EC08885AD
:103190009985681779074CF557FD27C08A859B8567
:1031A0004817590714F5262F2F5F042F0F5FCE0104
:1031B0000E940D18EE8DFF8D808198A5892B80834C
:1031C000EC8DFD8D90818FA1809589238083CE0128
:1031D000612F0E947C17CE016F2D0E947C17EC8D11
:1031E000FD8D80819FA1892B8083DF91CF911F91DD
:1031F0000F91FF900895DF92EF92FF920F931F932C
:10320000CF93DF93EC01FB017901D02E888599855E
:1032100068177907D4F52A853B8542175307ACF523
:10322000C701840F951F281739071CF47901E41A88
:10323000F50A042F01500E0DCE016E2F2E2F0E9485
:103240000D18EE8DFF8D808198A5892B8083EC8DE4
:10325000FD8D90818FA180958923808308C0CE0148
:10326000612F0E947C17CE016D2D0E947C1708945F
:10327000E108F1088FEFE8168FEFF80681F7EC8D83
:10328000FD8D80819FA1892B8083DF91CF911F913C
:103290000F91FF90EF90DF900895DF92EF92FF92F1
:1032A0000F931F93CF93DF93EC01FA017901D02E96
:1032B0002885398562177307D4F58A859B85481759
:1032C0005907ACF5C701860F971F281739071CF45B
:1032D0007901E61AF70A262F21502E0DCE014E2F26
:1032E0000E2F0E940D18EE8DFF8D808198A5892BE1
:1032F0008083EC8DFD8D90818FA1809589238083C3
:1033000008C0CE01612F0E947C17CE016D2D0E9456
:103310007C170894E108F1088FEFE8168FEFF806A4
:1033200081F7EC8DFD8D80819FA1892B8083DF91BA
:10333000CF911F910F91FF90EF90DF900895AF9282
:10334000BF92CF92DF92EF92FF920F931F93CF9392
:10335000DF936C015901E801DC0118962D913C9135
:103360001997621773070CF057C01A96ED91FC91EC
:103370001B974E175F070CF04FC0C501860F971FB4
:10338000281739071CF45901A61AB70ACE01840F71
:10339000951FE817F9071CF4EF01C41BD50B262F66
:1033A00021502A0D042F01500C0FC6010E940D1848
:1033B000D6015E96ED91FC915F97808198969C91E5
:1033C0009897892B80835C96ED91FC915D97908115
:1033D00097968C918095892380838E010EC0C601BB
:1033E0006F2D0E947C17C6016E2D0E947C172197BD
:1033F0001C161D06A4F3015010401016110614F4FB
:10340000E501F6CFD6015C96ED91FC915D97808148
:1034100097969C91892B8083DF91CF911F910F917B
:10342000FF90EF90DF90CF90BF90AF90089550E065
:103430004C7F507033E0440F551F3A95E1F730E070
:1034400093E0359527959A95E1F7422B532B70E041
:10345000687F7070762F6627462B572BCA01089518
:10346000662311F460E201C061E20E94BC17089576
:10347000AF92BF92CF92DF92EF92FF920F931F9382
:10348000CF93DF935C01FB01EB012196D49031C017
:103490008E010F5F1F4FFE016491C5010E94BC1792
:1034A00078010894E11CF11CF801C4900C2D0F77F1
:1034B000E701102F08C0FE012196E491C5016E2F8F
:1034C0000E94E51711501123B1F7E701C00FD11D7C
:1034D000C7FE0EC0FE018491682F70E06F3F71053A
:1034E00011F464EF71E0219680E090E00E945A0DA3
:1034F000DA94DD2069F6DF91CF911F910F91FF9053
:10350000EF90DF90CF90BF90AF9008950F931F93EF
:10351000CF93DF93EC018B0160E870E040EA50E06C
:103520000E9405151AA619A689A161E00E94150E30
:1035300088A161E00E94150EE8A12E2F30E0F9016C
:10354000EE5CFE4FE491F0E0EE0FFF1FE250FF4F04
:10355000859194919D8F8C8F28583E4FF9018491CD
:103560008FA3E9A12E2F30E0F901EE5CFE4FE4912C
:10357000F0E0EE0FFF1FE250FF4F859194919F8F77
:103580008E8F28583E4FF901849188A78F89882310
:1035900061F00E94D02E80E00E94BF2E81E00E9448
:1035A000B12E80E00E94BA2E3DC08CA161E00E9445
:1035B000150E8BA161E00E94150EECA18E2F90E0FC
:1035C000FC01EE5CFE4FE491F0E0EE0FFF1FE250D5
:1035D000FF4FA591B491BB8FAA8F88589E4FFC01D5
:1035E00044914EA3EBA12E2F30E0F901EE5CFE4F8B
:1035F000E491F0E0EE0FFF1FE250FF4F85919491B0
:10360000998F888F28583E4FF90184918DA38C9112
:10361000409548234C93E88DF98D90818DA180953C
:1036200089238083EC8DFD8D90818FA180958923E6
:1036300080838AA1882309F161E00E94150E8AA186
:1036400061E00E94C80E64EF71E080E090E00E94AB
:103650005A0D8AA160E00E94C80E64EF71E080E01C
:1036600090E00E945A0D8AA161E00E94C80E64EFAA
:1036700071E080E090E00E945A0D0115110521F0E3
:10368000CE01B8010E94381ADF91CF911F910F919E
:1036900008951F93CF93DF93EC01162F6FEF76E021
:1036A0000E94861A112351F4CE016AE377E00E944A
:1036B000381A82E089A781E08AA705C0CE0167E4B5
:1036C00077E00E94381ACE0164E577E00E94381A4C
:1036D000DF91CF911F910895FC011382128288EE31
:1036E00093E0A0E0B0E084839583A683B7838FE561
:1036F00093E091838083128E118E14860895FC01CD
:103700008FE593E0918380830895DF93CF930F92A9
:10371000CDB7DEB7FC016983A081B18112962D91EE
:103720003C911397BE016F5F7F4F41E050E0F9017C
:1037300019950F90CF91DF910895DC015996ED9185
:10374000FC915A97309719F420E030E018C0238993
:1037500034894589568982859385A485B585281B3A
:10376000390B4A0B5B0B2030B0E83B07B0E04B074E
:10377000B0E05B0720F02FEF3FE740E050E0C901E9
:103780000895DC015996ED91FC915A97309711F408
:1037900080E008958581811181E00895CF93DF93C2
:1037A000EC01898D9A8D009741F00E949D23898DAF
:1037B0009A8D0E948C2F1A8E198EDF91CF910895C9
:1037C000FC01818D928D009711F480E008950E9494
:1037D0008D220895FC01818D928D009711F00E9439
:1037E00053230895FC01818D928D009719F420E0F8
:1037F00030E003C00E9474249C01C9010895DF9346
:10380000CF930F92CDB7DEB7FC01818D928D0097DB
:1038100049F0BE016F5F7F4F41E050E00E94742489
:10382000019719F02FEF3FEF03C08981282F30E077
:10383000C9010F90CF91DF910895EF92FF920F93FE
:103840001F93DF93CF930F92CDB7DEB77C01DC01DE
:1038500059968D919C915A97009719F400E010E0C9
:103860001FC0BE016F5F7F4F41E050E00E94742493
:10387000019719F00FEF1FEF13C08981082F10E097
:10388000D7015996ED91FC915A97428553856485ED
:1038900075854150504060407040CF010E948D229C
:1038A000C8010F90CF91DF911F910F91FF90EF9082
:1038B0000895CF93DF93EC01E98DFA8D309761F095
:1038C00013821282CF010E94B9269C01E98DFA8DE4
:1038D00082819381892B31F081E090E09B838A8300
:1038E00020E030E0C901DF91CF910895EF92FF927F
:1038F0000F931F93CF93DF93EC01F62EE72E8A01EF
:103900001B821A8288EE93E0A0E0B0E08C839D8356
:10391000AE83BF838FE593E0998388838DE190E048
:103920000E94EF2E9A8F898F009791F0DC018F2DE6
:103930009E2D9C01F9018DE101900D928150E1F7DE
:10394000CE010C96B8014CE050E00E943F30188E3A
:10395000DF91CF911F910F91FF90EF9008951092FA
:103960009B0610929C0610929F061092A10682E080
:1039700090E0A0E0B0E08093A2069093A306A0930D
:10398000A406B093A5061092B9061092C306109231
:10399000C2068FE693E09093C1068093C006109212
:1039A000C50608952F923F924F925F926F927F9239
:1039B0008F929F92AF92BF92CF92DF92EF92FF923F
:1039C0000F931F93DF93CF93CDB7DEB7C754D0408B
:1039D0000FB6F894DEBF0FBECDBF582E492EFB01A7
:1039E0003A01190184A595A5998B888B2FE633E0C0
:1039F0003F872E8786A58A8B87A58B8B80A991A967
:103A0000A2A9B3A98C8B9D8BAE8BBF8B84A995A9E2
:103A1000A6A9B7A9888F998FAA8FBB8F80AD91ADCA
:103A2000A2ADB3AD8C8F9D8FAE8FBF8F84AD88A3B9
:103A3000FD9681919191A191B19189A39AA3ABA394
:103A4000BCA381919191A191B1918DA39EA3AFA3AC
:103A5000B8A7808191819AA789A71EA61DA63CA719
:103A60002BA718AA7A018E01025F1F4F3BE2A32EFB
:103A7000B12CAC0EBD1E4E010894811C911C35C0AA
:103A8000D7018C918F3221F40894E11CF11C2DC0D8
:103A9000422F4E194D3008F04CE0C42EDD24C401F5
:103AA000B701A6010E943F30F401EC0DFD1D10820C
:103AB000C5010E949D23C501B801A40121E00E9417
:103AC000E528882351F4E52DF42D138212828FE628
:103AD00093E091838083158266C0EC0CFD1CC801C5
:103AE0000E949D23C50158018C01C7016FE270E05F
:103AF0000E9434309C01009719F6E618F708F1018E
:103B0000F182E082E52DF42DD80112968D919C91E1
:103B10001397938382838FE693E091838083149637
:103B20008C911497848315968C911597858316969E
:103B30002D913D914D915C91199726833783408754
:103B400051871A962D913D914D915C911D97228739
:103B50003387448755871E962D913D914D915C91F9
:103B6000519726873787408B518B52968C9152976D
:103B7000828B53962D913D914D915C915697238B5D
:103B8000348B458B568B57962D913D914D915C9181
:103B90005A97278B308F418F528F5B968D919C91D6
:103BA0005C97948F838F852D942DC95BDF4F0FB663
:103BB000F894DEBF0FBECDBFCF91DF911F910F9163
:103BC000FF90EF90DF90CF90BF90AF909F908F903D
:103BD0007F906F905F904F903F902F9008959F92AD
:103BE000AF92BF92CF92DF92EF92FF920F931F930B
:103BF000DF93CF93CDB7DEB7C657D0400FB6F8945A
:103C0000DEBF0FBECDBFC82E992E8A01D22E43E053
:103C1000A42EB12CAC0EBD1EC501A8019E012F5FC4
:103C20003F4F0E94D21CE980FA80E00EF11EF7019E
:103C300080814FE653E02885882309F03FC08D81BD
:103C40009E819BA38AA359A348A38F818CA32DA3F4
:103C500089859A85AB85BC858EA39FA3A8A7B9A7A4
:103C60008D859E85AF85B8898AA79BA7ACA7BDA780
:103C700089899A89AB89BC898EA79FA7A8ABB9AB64
:103C80008D898AAB8E899F89A88DB98D8BAB9CABB2
:103C9000ADABBEAB8A8D9B8DAC8DBD8D8FAB98AF20
:103CA000A9AFBAAF8E8D9F8D9CAF8BAF8C2D992D08
:103CB000BE01605E7F4F42EF52E09FC0FE01FF9663
:103CC000118210825EAF4DAFFE01EE5BFF4F10829E
:103CD0002223A9F02250CE01CD96223048F460EC88
:103CE00076E0A7012D2D0E94E528882381F407C0E6
:103CF000B501A7012D2D0E94E528882329F48C2DDC
:103D0000992D0E946C1B7BC0C5010E949D23F6E08B
:103D1000DF2259F0FE01E05BFF4F4081518162815B
:103D20007381CE01CD960E948D229E01265A3F4F6F
:103D3000FE01FF9680819181F901938382838FE652
:103D400093E091838083FE01EF5BFF4F8081F90157
:103D50008483FE01EE5BFF4F8081F9018583FE01C4
:103D6000ED5BFF4F80819181A281B381F901868350
:103D70009783A087B187FE01E95BFF4F8081918126
:103D8000A281B381F90182879387A487B587FE0159
:103D9000E55BFF4F80819181A281B381F901868724
:103DA0009787A08BB18BFE01E15BFF4F8081F9010A
:103DB000828BFE01E05BFF4F80819181A281B38104
:103DC000F901838B948BA58BB68BFE01EC5AFF4FC8
:103DD00080819181A281B381F901878B908FA18F1E
:103DE000B28FFE01E85AFF4F80819181F901948FD3
:103DF000838F8C2D992DB901A7010E94761C8C2DE3
:103E0000992DCA58DF4F0FB6F894DEBF0FBECDBF55
:103E1000CF91DF911F910F91FF90EF90DF90CF90A6
:103E2000BF90AF909F9008950F931F93CF93DF9310
:103E3000EC01462F61E00E9479218823D1F08E01A8
:103E4000045F1F4FC801BE0141E00E94862A8823FB
:103E500039F4C801BE0140E00E94862A882349F057
:103E6000CE018A96B8010E94D325882319F081E0FB
:103E700001C080E0DF91CF911F910F910895FC0167
:103E8000673020F086E1858380E00895262F30E0BA
:103E900060FD02C0663019F48DB58E7F02C08DB50D
:103EA00081608DBD8CB58C7F8CBD4CB522FD02C070
:103EB00090E001C092E036952795822F8170842B87
:103EC000892B8CBD81E00895FF920F931F93CF93B0
:103ED000DF938B010E944C0DEB01FF24FA94FEBC92
:103EE0000DB407FEFDCF8EB58F3F11F481E008C001
:103EF0000E944C0D6C1B7D0B6017710780F380E0F6
:103F0000DF91CF911F910F91FF900895FC01848163
:103F100060E00E94C80E0895FC01848161E00E9467
:103F2000C80E0895DC016EBDFA0120E030E00DB44A
:103F300007FEFDCF80818EBD0DB407FEFDCF8181D0
:103F40008EBD2E5F3F4F329682E02030380779F7E2
:103F50000DB407FEFDCF8FEF8EBD0DB407FEFDCF74
:103F60008FEF8EBD0DB407FEFDCF8FEF8EBD0DB46C
:103F700007FEFDCF8EB51A968C931A978F718530F8
:103F800011F481E0089581E115968C931597CD0188
:103F90000E948C1F80E00895FF920F931F93CF9390
:103FA000DF93EC010E944C0D8B01FF24FA9409C0B1
:103FB0000E944C0D601B710B6D52714010F08FE030
:103FC0000DC0FEBC0DB407FEFDCF8EB58A878F3FB6
:103FD00079F38E3F11F481E006C08DE08D83CE0130
:103FE0000E948C1F80E0DF91CF911F910F91FF9075
:103FF0000895CF93DF93EC018E818823D1F08FEF6A
:104000008EBD2F8138854FEF04C00DB407FEFDCF64
:104010004EBD2F5F3F4FC901019781509240A8F3D9
:1040200038872F830DB407FEFDCFCE010E948C1F71
:104030001E82DF91CF910895DF92EF92FF920F934E
:104040001F93CF93DF93EC01D62E79018A010E9452
:10405000F91FCE010E94861FCE016CE271E00E9422
:10406000641F8D2D80648EBD0DB407FEFDCF28E149
:1040700030E0D801C701022E04C0B695A7959795E8
:1040800087950A94D2F78EBD0DB407FEFDCF285058
:1040900030408FEF283F380761F7DD2011F485E9C4
:1040A00006C088E0D81611F487E801C08FEF8EBDF6
:1040B0000DB407FEFDCF90E02FEF2EBD0DB407FE2F
:1040C000FDCF8EB587FF02C09150B9F78A87DF9187
:1040D000CF911F910F91FF90EF90DF900895CF92B5
:1040E000DF92EF92FF920F931F93CF93DF93EC0138
:1040F0007A018B016901411551056105710511F4C2
:1041000082E137C08B85833039F029E0EE0CFF1C4B
:10411000001F111F2A95D1F7CE0168E1A801970170
:104120000E941C20882311F084E023C0CE016EEF92
:10413000A6010E94921F8823E9F0CE0168E572E093
:104140000E94641F882311F485E113C0CE016DE045
:1041500020E030E040E050E00E941C20882341F441
:104160008FEF8EBD0DB407FEFDCF8EB5882379F09D
:1041700084E18D83CE010E948C1F80E0DF91CF917E
:104180001F910F91FF90EF90DF90CF900895CE0197
:104190000E948C1F81E0F2CF8F929F92AF92BF92CC
:1041A000CF92DF92EF92FF920F931F93CF93DF9303
:1041B000EC015A016B0149010115110509F47BC09D
:1041C000C801820F931F8150924008F06FC08E810A
:1041D000882371F088819981AA81BB81481759078A
:1041E0006A077B0729F48F8198858816990618F548
:1041F000A882B982CA82DB828B85833039F069E07C
:10420000AA0CBB1CCC1CDD1C6A95D1F7CE0161E168
:10421000A60195010E941C20882319F083E08D835C
:1042200045C0CE010E94CC1F882309F43FC01886E8
:104230001F8281E08E838FEF8EBD8F8198852FEF57
:1042400005C00DB407FEFDCF2EBD0196881599055A
:10425000C0F398878F83D801119720E030E09FEF5B
:104260000BC00DB407FEFDCF8EB5F701E20FF31FB3
:1042700080839EBD2F5F3F4F2A173B0790F30DB4FD
:1042800007FEFDCF8EB5AE0DBF1D8C932F813885F7
:10429000200F311F38872F838985882319F02050FC
:1042A000324048F0CE010E94F91F05C0CE010E94A5
:1042B0008C1F80E001C081E0DF91CF911F910F91B1
:1042C000FF90EF90DF90CF90BF90AF909F908F9036
:1042D0000895EF92FF920F931F93790120E030E051
:1042E00000E012E00E94CC201F910F91FF90EF9010
:1042F0000895BF92CF92DF92EF92FF920F931F9398
:10430000CF93DF93EC01B62E1B8619861E821D8289
:104310004C830E944C0D6B018C8161E00E94150E54
:10432000CE010E948C1F82E360E00E94150E83E3A1
:1043300061E00E94150E84E361E00E94150E85E3A2
:1043400061E00E94150E85E361E00E94C80E83E5DE
:104350008CBD8DB58E7F8DBD80E09FEF9EBD0DB471
:1043600007FEFDCF8F5F8A30C9F7CE010E94861FFE
:1043700009C00E944C0D6C197D09615D774010F0F9
:1043800081E05EC0CE0160E020E030E040E050E03F
:104390000E941C20182F8A87813059F7CE0168E0CF
:1043A0002AEA31E040E050E00E941C2082FF02C077
:1043B0001B8711C080E02FEF2EBD0DB407FEFDCF8F
:1043C0009EB58F5F8430C1F79A879A3A11F082E0E8
:1043D00037C082E08B878B85823021F0EE24FF246A
:1043E00087010FC0E12CF12C012DF0E41F2F09C033
:1043F0000E944C0D6C197D09615D774010F088E0DA
:104400001FC0CE0167E320E030E040E050E00E94B2
:104410001C20CE0169E2A80197010E941C208A8716
:10442000882331F78B85823031F5CE016AE320E0B5
:1044300030E040E050E00E941C20882339F086E004
:104440008D83CE010E948C1F80E01CC08FEF8EBD3B
:104450000DB407FEFDCF8EB5807C803C11F483E067
:104460008B8780E09FEF9EBD0DB407FEFDCF2EB57C
:104470008F5F8330C1F7CE010E948C1FCE016B2D60
:104480000E943F1FDF91CF911F910F91FF90EF90FE
:10449000DF90CF90BF900895CF93DF93EC01DB01C5
:1044A00080E090E020E2FD01E80FF91F20830196F3
:1044B0008B309105C1F757E040E021C02E3219F052
:1044C00086EE97E007C05A3019F15AE048E017C06D
:1044D0003217F1F0FC01019634913323C9F75417D8
:1044E000B8F02132A8F02F3798F4822F81568A3104
:1044F00008F42052FD01E40FF11D20834F5F299144
:104500002223E1F690E08C91803219F091E001C015
:1045100090E0892FDF91CF9108956F927F928F92D3
:104520009F92AF92BF92CF92DF92EF92FF920F9342
:104530001F93CF93DF93EC017A018B012D8122230E
:1045400009F480C08B899C89AD89BE898417950741
:10455000A607B70708F476C085C0E114F104010589
:10456000110549F41E821F82188619861A861B8639
:104570001C861D8665C02A853B854C855D85EB8D37
:10458000FC8D858590E00996215030404040504098
:1045900039014A01082E04C0969487947794679451
:1045A0000A94D2F72F5F3F4F4F4F5F4F0894E108B7
:1045B000F108010911095701680104C0D694C79494
:1045C000B794A7948A95D2F70894E11CF11C011DB9
:1045D000111DA614B704C804D90428F0211531050B
:1045E0004105510549F48F89988DA98DBA8D8E8327
:1045F0009F83A887B98716C0A618B708C808D90826
:1046000011C04E815F81688579858B8D9C8D940169
:104610000E94672C0894A108B108C108D10888231A
:1046200031F410C086E0882E912C8C0E9D1EA114B2
:10463000B104C104D10429F7EA86FB860C871D87E3
:1046400081E001C080E0DF91CF911F910F91FF9039
:10465000EF90DF90CF90BF90AF909F908F907F9022
:104660006F900895223009F078CFE6CFCF93DF9393
:10467000EC01462F6E857F85888999890E944B2A97
:10468000882319F420E030E00AC08A89282F30E01E
:1046900095E0220F331F9A95E1F72F51394FC90149
:1046A000DF91CF9108950F931F93CF93DF938C01E8
:1046B000FC0185818823D9F1848187FF35C0C80139
:1046C00061E00E943623EC01009789F1F8018581B1
:1046D000823040F483899489A589B6898C8F9D8F17
:1046E000AE8FBF8FF8018789908D9B8F8A8F8789C6
:1046F000908DA18DB28DCD01AA27BB279D8B8C8B70
:10470000E091DF06F091E006309751F0BE016A5E5D
:104710007F4FCE0148961995888D998D9B8B8A8BFA
:10472000F80184818F7784830E94EC2901C080E0A6
:10473000DF91CF911F910F910895CF93DF93EC01FB
:104740000E945323882311F01D8281E0DF91CF91D5
:1047500008956F927F928F929F92AF92BF92CF9265
:10476000DF92EF92FF920F931F93DF93CF9300D0CE
:104770000F92CDB7DEB77C015A016B01DC011596B3
:104780008C911597813009F08FC014968C9181FF20
:104790008BC09EC00097A105B10511F481E085C0D2
:1047A000F7016284738484849584C701B601A501EE
:1047B0000E948D22882309F477C0D7015B968D91E2
:1047C0009C915C97A114B104C104D10489F457965B
:1047D0004D915D916D917C915A970E94DA2C8823BE
:1047E00009F462C0F701178A108E118E128E3DC037
:1047F000D70116964D915D916D917C9119979E010F
:104800002F5F3F4F0E94672C882309F44DC0D701CA
:104810005B96ED91FC915C9749815A816B817C811B
:104820008789803129F088EF9FEFAFEFBFE004C0A8
:1048300088EF9FEFA0E0B0E0481759076A077B07B1
:10484000A0F4CF010E94DA2C882371F1F701468190
:10485000578160857185838D948D0FEF1FEF2FEF4A
:104860003FE00E94CB2B8823F9F0D7015396AD92FD
:10487000BD92CD92DC92569714968C9114978068D5
:1048800014968C93C7010E945323882369F0B601C4
:10489000A5016A147B048C049D0410F4B401A301E7
:1048A000C7010E948D2201C080E00F900F900F90F1
:1048B0000F90CF91DF911F910F91FF90EF90DF90BC
:1048C000CF90BF90AF909F908F907F906F90089502
:1048D000F70183899489A589B68984179507A60766
:1048E000B70708F057CFE0CF2F923F924F925F92D9
:1048F0006F927F928F929F92AF92BF92CF92DF92F0
:10490000EF92FF920F931F93CF93DF93EC012A0155
:104910008D81882309F4C6C08C8180FFC3C0D8C0B4
:1049200025014E185F084B0176E0272E312C2C0E06
:104930003D1E3201B1C02A853B854C855D856FEFF8
:10494000A62E61E0B62EA222B3228D8179018A01C2
:1049500099E016950795F794E7949A95D1F7EB8D22
:10496000FC8D823049F4428D538D648D758D4E0DD2
:104970005F1D601F711F3FC0D480DA94DE20A11438
:10498000B104D9F4DD20C9F42115310541055105E3
:1049900049F48F89988DA98DBA8D8E839F83A887BE
:1049A000B9870BC04E815F8168857985CF01910100
:1049B0000E94672C882309F475C0EB8DFC8D4E8115
:1049C0005F81688579854250504060407040058421
:1049D00004C0440F551F661F771F0A94D2F78685BF
:1049E0009785A089B189480F591F6A1F7B1F4D0DFC
:1049F000511D611D711D80E092E08A199B096301C0
:104A00008615970508F46C018C8186FD06C080E050
:104A1000C81682E0D80609F073C080912F039091E8
:104A20003003A0913103B0913203481759076A0748
:104A30007B0709F465C08091E1089091E208950137
:104A4000860174010E94CC20882361F18C0C9D1C8E
:104A500012C095012F51394FA9014C0D5D1DD40194
:104A6000F90102C081918D93E417F507D9F7E21B94
:104A7000F30B8E0E9F1E960140E050E08A859B85C9
:104A8000AC85BD85820F931FA41FB51F8A879B87A6
:104A9000AC87BD876C187D086114710409F04BCF99
:104AA000A20102C04FEF5FEFCA01DF91CF911F91CA
:104AB0000F91FF90EF90DF90CF90BF90AF909F90BD
:104AC0008F907F906F905F904F903F902F900895C0
:104AD000AB88BC88CD88DE88EA84FB840C851D8584
:104AE0009A0140E050E0D601C5018E199F09A00B44
:104AF000B10B82179307A407B50708F411CF13CFA2
:104B0000CB01BA0140E00E944B2A882309F0A1CFD3
:104B1000C9CFCF92DF92EF92FF920F931F93DF9353
:104B2000CF930F92CDB7DEB76C01FC018581823047
:104B300070F0E284F38404851585C601BE016F5FC1
:104B40007F4F41E050E00E947424019769F020E01B
:104B500030E0C9010F90CF91DF911F910F91FF902D
:104B6000EF90DF90CF900895F60182859385A4851C
:104B7000B5854F96A11DB11D82879387A487B58700
:104B8000F5E016950795F794E794FA95D1F78E2DF1
:104B90008F70282F30E0E5E0220F331FEA95E1F710
:104BA0002F51394FD6CF0F931F93CF93DF93EC0143
:104BB0008B018D81882309F041C0FB0187898031F9
:104BC000B1F482E08D831F8A188E198E1A8E808D23
:104BD000918DA0E0B0E045E0880F991FAA1FBB1F90
:104BE0004A95D1F78B8B9C8BAD8BBE8B15C08032D9
:104BF00029F583E08D83FB01428D538D648D758D86
:104C00004F8B588F698F7A8F9E012D5E3F4FC80161
:104C10000E94332D882391F01C8F0B8F81E08C83B1
:104C20001E821F82188619861A861B861C861D8680
:104C30001E861F86188A198A1A8A01C080E0DF91B1
:104C4000CF911F910F9108951F93CF93DF93EC01A4
:104C5000142FE62FF0E075E0EE0FFF1F7A95E1F7D5
:104C6000EF51F94F8385817121F0842F827409F00F
:104C700054C06A8B80912F0390913003A09131032F
:104C8000B09132038E879F87A88BB98B84899589D1
:104C9000A0E0B0E0BC0155274427828D938DA0E0B1
:104CA000B0E0482B592B6A2B7B2B4F8B588F698F89
:104CB0007A8F838590E088719070009751F4848D8D
:104CC000958DA68DB78D8B8B9C8BAD8BBE8B81E02C
:104CD0000CC0409711F59E012D5E3F4F8B8D9C8D32
:104CE0000E94332D8823C9F084E08D83812F8F703B
:104CF0008C831E821F82188619861A861B861C8644
:104D00001D8616FD02C081E009C0CE0140E050E0E2
:104D100060E070E00E94A92301C080E0DF91CF91A4
:104D20001F910895CF93DF93EC019C012A5F3F4FC1
:104D30008B8D9C8D41E050E060E070E00E94A22DE0
:104D40008823A1F08F89988DA98DBA8D0097A10530
:104D5000B10559F48E819F81A885B9858F8B988F75
:104D6000A98FBA8F8C8180688C8381E0DF91CF918D
:104D700008952F923F924F925F927F928F929F92CF
:104D8000AF92BF92CF92DF92EF92FF920F931F9359
:104D9000DF93CF9300D000D0CDB7DEB76C01162FD4
:104DA000072F5E834D83DC0115968C91159781301A
:104DB00009F070C114968C9181FF6CC18EC1F6010F
:104DC000438954896589768982859385A485B585CB
:104DD00084179507A607B70731F0C6010E948D22F8
:104DE000882309F457C1812F902F9C0129012D8020
:104DF0003E8017C1D6015B96ED91FC915C97DA017C
:104E0000C90119E0B695A795979587951A95D1F799
:104E100074807A9478227FEF872E71E0972E822219
:104E20009322772009F04EC08114910409F04AC002
:104E3000D60116964D915D916D917C911997411512
:104E400051056105710581F457968D919D910D90E5
:104E5000BC91A02D0097A105B10549F1F60186830B
:104E60009783A087B1872EC0CF019E012F5F3F4F50
:104E70000E94672C882309F414C129813A814B814F
:104E80005C81D6015B96ED91FC915C9787898031BE
:104E900029F088EF9FEFAFEFBFE004C088EF9FEFEE
:104EA000A0E0B0E0281739074A075B0730F0C601D9
:104EB0000E949226882331F4EDC0F60126833783C1
:104EC0004087518780E092E0881999095101821545
:104ED000930508F45C01D6015B96ED91FC915C971B
:104EE0001696ED90FD900D911C9119978EEF9FEF06
:104EF000AFEFBFEFE80EF91E0A1F1B1F058404C0A9
:104F0000EE0CFF1C001F111F0A94D2F786859785AF
:104F1000A089B189E80EF91E0A1F1B1FE70CF11CBE
:104F2000011D111D90E0A91692E0B90651F580917E
:104F30002F0390913003A0913103B09132038E156D
:104F40009F05A007B10761F48FEF9FEFAFEFBFEFB1
:104F500080932F0390933003A0933103B0933203D7
:104F60008091E1089091E208B801A70192010E94A6
:104F70006F20882309F48EC0A0E0B2E04A0E5B1EC9
:104F80003EC08114910409F5F601228533854485DC
:104F9000558583899489A589B689281739074A07D1
:104FA0005B0798F00E94EC29882309F473C0E09213
:104FB0002F03F0923003009331031093320380915A
:104FC000E30881608093E30808C0C801B70141E0AD
:104FD0000E944B2A882309F45DC094012F51394F58
:104FE000A9014A0D5B1DD201F90102C08D91819387
:104FF000E417F507D9F7E21BF30B4E0E5F1E2A18D4
:105000003B08950140E050E0F60182859385A48538
:10501000B585820F931FA41FB51F82879387A4872E
:10502000B587D6011A962D913D914D915C911D97B2
:105030002114310409F0DECE53968D919D910D908F
:10504000BC91A02D82179307A407B50748F4F60179
:10505000238B348B458B568B84818068848311C06D
:105060008091DF069091E006892B59F08D819E8119
:10507000892B39F0D60114968C9114978068149678
:105080008C93F601848183FF0EC0C6010E945323D6
:10509000882349F481E090E0D60113969C938E9387
:1050A00012971E821D828D819E8126960FB6F894DE
:1050B000DEBF0FBECDBFCF91DF911F910F91FF904B
:1050C000EF90DF90CF90BF90AF909F908F907F90A8
:1050D0005F904F903F902F90089582FD70CE83CEC9
:1050E000DF93CF930F92CDB7DEB76983BE016F5FB9
:1050F0007F4F41E050E00E94B9260F90CF91DF91A1
:105100000895DF92EF92FF920F931F93CF93DF9357
:10511000EC010E949226882309F44EC0EB8DFC8D91
:10512000EE80FF80088519858EEF9FEFAFEFBFEF10
:10513000E80EF91E0A1F1B1F058404C0EE0CFF1C9D
:10514000001F111F0A94D2F786859785A089B1891F
:10515000E80EF91E0A1F1B1FD4800894E108F1080D
:10516000010911090BC0C801B7016D0D711D811D29
:10517000911D0E94272A8823F9F0DA94DD2099F7FF
:10518000EB8DFC8D20E032E040E050E0058404C06F
:10519000220F331F441F551F0A94D2F78B899C8915
:1051A000AD89BE89820F931FA41FB51F8B8B9C8B6B
:1051B000AD8BBE8B81E001C080E0DF91CF911F916C
:1051C0000F91FF90EF90DF9008956F927F928F92F2
:1051D0009F92AF92BF92CF92DF92EF92FF920F9386
:1051E0001F93DF93CF93CDB7DEB72B970FB6F8940D
:1051F000DEBF0FBECDBF5C016B01822EDC011596B8
:105200008C91882309F0D2C0CA018E010F5F1F4F15
:10521000B8010E944C22882309F4C8C0F601838D8E
:10522000948DD5015C969C938E935B971682178222
:1052300010861186D6011A961D921D921D921C92FF
:105240001D979924380141C0C6010E948925FC019F
:10525000009709F4ABC085E016950795F794E7949D
:105260008A95D1F71E2D1F708081882311F0853E0D
:10527000D1F4992091F4D50152961C935297209124
:105280002F033091300340913103509132031E9629
:105290002D933D934D935C9351978081882399F48E
:1052A0009924939421C0C301BF014BE050E00E94B8
:1052B0002730009751F4882D8073803309F476C02D
:1052C000C501612F6FC099249394F601E284F384A1
:1052D0000485158583899489A589B689E816F90618
:1052E0000A071B0708F4B0CF882D8271823109F0BC
:1052F0005DC0992041F0C50161E00E9436238C0118
:10530000009789F453C0D60115968C91823009F428
:105310004DC0C6010E948128882309F447C0F501C9
:10532000128A01EE16E080E2D8011D928A95E9F713
:10533000D801FE0131968BE001900D928150E1F78A
:10534000E091DF06F091E006309739F0B801625F36
:105350007F4FC8014096199509C081E298E2F80193
:10536000918B808B80E098E097878687D801509654
:105370008D919C91519753969C938E9352975996E9
:105380009C938E9358971E968D919C911F9757963C
:105390009C938E9356970E94EC29882339F0C5017F
:1053A000F5016289482D0E94242601C080E02B96D9
:1053B0000FB6F894DEBF0FBECDBFCF91DF911F9126
:1053C0000F91FF90EF90DF90CF90BF90AF909F90A4
:1053D0008F907F906F9008958091E308882399F1D2
:1053E00040912F035091300360913103709132034B
:1053F0008091E1089091E20821EE36E00E946F2052
:10540000882319F14091E4085091E5086091E6087D
:105410007091E708411551056105710591F0809182
:10542000E1089091E20821EE36E00E946F20882387
:1054300061F01092E4081092E5081092E6081092CC
:10544000E7081092E30881E0089580E00895EF9264
:10545000FF920F931F937B018C010E94EC298823FC
:10546000A9F0E1EEF6E0119288E0E13EF807D9F705
:10547000E0922F03F0923003009331031093320334
:105480008091E30881608093E30881E01F910F9190
:10549000FF90EF900895DF92EF92FF920F931F938A
:1054A0007B018C01D42E80912F0390913003A09129
:1054B0003103B09132038E159F05A007B107C1F0EB
:1054C0000E94EC298823D9F08091E1089091E208AC
:1054D000B801A70121EE36E00E946921882379F006
:1054E000E0922F03F09230030093310310933203C4
:1054F0008091E3088D298093E30881E001C080E07A
:105500001F910F91FF90EF90DF9008958F929F92DF
:10551000AF92BF92CF92DF92EF92FF920F931F93C1
:10552000CF93DF936C01142F7093E2086093E1082E
:10553000442321F488249924540140C0453008F0C4
:105540001CC160E070E080E090E040E00E944B2AE7
:10555000882309F412C1C12FD0E02197FE0174E025
:10556000EE0FFF1F7A95E1F7EF51F94FE254FE4F2E
:105570008081EE5BF14090E08F779070892B09F08D
:10558000FCC0E653FE4F80819181A281B3818436B5
:105590009105A105B10508F4F0C064E0CC0FDD1F52
:1055A0006A95E1F7C955D74F88809980AA80BB805A
:1055B00081149104A104B10409F4DFC0C501B40150
:1055C00040E00E944B2A882309F4D7C08091EC0662
:1055D0009091ED068050924009F0CFC02091F106E5
:1055E000222309F4CAC08091EF069091F006892B1E
:1055F00009F4C3C08091EE06882309F4BEC0F60109
:10560000228B8091EE068483158661E070E007C0EE
:105610004F5FF60145874150483008F0AEC0F601B3
:105620004585848190E09B01042E02C0220F331F28
:105630000A94E2F78217930759F72091F706309101
:10564000F8062115310519F040E050E008C020911E
:105650000507309106074091070750910807F601AA
:105660002583368347835087E090EF06F090F0065D
:1056700000E010E0E80CF91C0A1D1B1DE38AF48A07
:10568000058B168B8091F2069091F306918F808F97
:105690006091F10670E080E090E00E9433316E0D81
:1056A0007F1D801F911FF601628F738F848F958FEE
:1056B0002091F2063091F30655E0220F331F5A95E0
:1056C000E1F721503E4F232F3327269540E050E04D
:1056D000260F371F481F591F26873787408B518B4E
:1056E0008091F4069091F506009719F0A0E0B0E0E3
:1056F00008C08091010790910207A0910307B09123
:10570000040785017401E21AF30A040B150BA801C2
:105710009701280F391F4A1F5B1FF601058404C03B
:1057200056954795379527950A94D2F72187328762
:1057300043875487253FFFE03F07F0E04F07F0E045
:105740005F0710F48CE006C0255F3F4F404050409B
:1057500028F480E1F601878B81E010C080910D076D
:1057600090910E07A0910F07B0911007F601828F5C
:10577000938FA48FB58F80E2EECF80E0DF91CF9141
:105780001F910F91FF90EF90DF90CF90BF90AF905F
:105790009F908F9008954F925F926F927F928F9219
:1057A0009F92AF92BF92CF92DF92EF92FF920F93B0
:1057B0001F93CF93DF93EC016A017B01280139012C
:1057C000423051056105710508F46FC089859A85DD
:1057D000AB85BC850196A11DB11D84179507A60751
:1057E000B70708F462C02B893C894D895E898F898F
:1057F000803129F499278F2D7E2D6D2D09C0C70189
:10580000B60117E096958795779567951A95D1F724
:105810004B015C01820E931EA41EB51E80912F03C6
:1058200090913003A0913103B0913203881699060C
:10583000AA06BB0639F0C501B40140E00E944B2A1C
:10584000882399F18F89803149F4F601F070EE0FC9
:10585000FF1FEF51F94F518240820DC0F601EF77E3
:10586000F070EE0FFF1FEE0FFF1FEF51F94F408258
:105870005182628273828091E30881608093E308A1
:105880008A89823080F08D819E81AF81B885880EB3
:10589000991EAA1EBB1E8092E4089092E508A09271
:1058A000E608B092E70881E001C080E0DF91CF9187
:1058B0001F910F91FF90EF90DF90CF90BF90AF902E
:1058C0009F908F907F906F905F904F900895CF92B0
:1058D000DF92EF92FF920F931F93CF93DF93EC0130
:1058E0007A018B01690189859A85AB85BC85019612
:1058F000A11DB11D84179507A607B70708F450C06E
:105900002B893C894D895E898F89803129F49927BB
:10591000812F702F6F2D09C0C801B701E7E0969560
:10592000879577956795EA95D1F7260F371F481F1A
:10593000591F80912F0390913003A0913103B091B2
:105940003203281739074A075B0739F0CA01B90142
:1059500040E00E944B2A882319F18F89803159F445
:10596000F701F070EE0FFF1FEF51F94F8081918129
:10597000A0E0B0E00EC0F701EF77F070EE0FFF1F70
:10598000EE0FFF1FEF51F94F80819181A281B3810A
:10599000BF70F60180839183A283B38381E001C04D
:1059A00080E0DF91CF911F910F91FF90EF90DF90FA
:1059B000CF900895AF92BF92CF92DF92EF92FF9275
:1059C0000F931F93DF93CF9300D00F92CDB7DEB725
:1059D0006C017A018B0182E090E0A0E0B0E0F6017A
:1059E00080839183A283B3835E010894A11CB11CC0
:1059F000C601B801A70195010E94672C882319F1FF
:105A0000C601B801A70100E010E020E030E00E94EC
:105A1000CB2B8823C1F0E980FA800B811C81F60131
:105A20008789803129F088EF9FEFAFEFBFE004C096
:105A300088EF9FEFA0E0B0E0E816F9060A071B0721
:105A4000B8F281E001C080E00F900F900F900F90AE
:105A5000CF91DF911F910F91FF90EF90DF90CF904A
:105A6000BF90AF9008954F925F926F927F928F9206
:105A70009F92AF92BF92CF92DF92EF92FF920F93DD
:105A80001F93DF93CF9300D00F92CDB7DEB76C0199
:105A900049835A836B837C833901EE24FF24870179
:105AA0002E010894411C511C812CA2E09A2EA12C9D
:105AB000B12C49815A816B817C81C60192010E947F
:105AC000672C882351F1D501C401F601058404C077
:105AD000880F991FAA1FBB1F0A94D2F7E80EF91E60
