:100000000C948B030C94B7030C94B7030C94B703B4
:100010000C94B7030C94B7030C94B7030C94B70378
:100020000C94B7030C94B7030C94B7030C94B70368
:100030000C94B7030C94B7030C94B7030C94B70358
:100040000C94B7030C94B7030C94B7030C94B70348
:100050000C94B7030C94B7030C94B7030C94722060
:100060000C94B7030C946F050C949B060C94B70387
:100070000C94B7030C94B7030C94B7030C94B70318
:100080000C94B7030C94B7030C94B7030C94B70308
:100090000C94A8050C94DA060C94B7030C94B703DF
:1000A0000C94B7030C94B7030C94B7030C94B703E8
:1000B0000C94B7030C94B7030C94B7030C94B703D8
:1000C0000C94B7030C94B7030C94B7030C94E1059C
:1000D0000C9419070C94B7030C941A060C94580747
:1000E0000C94B7037C3C3E5E2B3D3F2F5B5D3B2C6D
:1000F0002A225C0000002100240027002A002D0095
:100100003000330001010000040107010A01000072
:100110002200250028002B002E00310034000201AF
:100120000000050108010B0100002000230026004B
:1001300029002C002F0032000001000003010601FD
:10014000090105050505070508080808020202025D
:100150000A0A080804040404010101010101010163
:100160000303030303030303040707070C0C0C0C2E
:100170000C0C0C0C02020202060606060606060617
:100180000B0B0B0B0B0B0B0B0102102020080810A4
:1001900020401020408002010201080402010102F7
:1001A00004081020408080402010080402018004D0
:1001B000020180402010080402010804020101022B
:1001C0000408102040800102040810204080000034
:1001D000090A02080B0C0D070603040100000000C9
:1001E000000000000000000000000000000000000F
:1001F0000000000000000000000011100F000000CF
:1002000000000000000000000000000000000000EE
:100210000000000000000000003E5B4F5B3E3E6BB4
:100220004F6B3E1C3E7C3E1C183C7E3C181C577D90
:10023000571C1C5E7F5E1C00183C1800FFE7C3E7DC
:10024000FF0018241800FFE7DBE7FF30483A060EEE
:100250002629792926407F050507407F05253F5A35
:100260003CE73C5A7F3E1C1C08081C1C3E7F1422A5
:100270007F22145F5F005F5F06097F017F00668950
:10028000956A606060606094A2FFA29408047E0496
:100290000810207E201008082A1C08081C2A0808BC
:1002A0001E101010100C1E0C1E0C30383E3830067C
:1002B0000E3E0E06000000000000005F0000000778
:1002C000000700147F147F14242A7F2A12231308A6
:1002D000646236495620500008070300001C224182
:1002E000000041221C002A1C7F1C2A08083E080826
:1002F00000807030000808080808000060600020D6
:10030000100804023E5149453E00427F40007249B8
:100310004949462141494D331814127F102745455C
:1003200045393C4A49493141211109073649494972
:1003300036464949291E00001400000040340000E0
:100340000008142241141414141400412214080249
:10035000015909063E415D594E7C1211127C7F49BC
:100360004949363E414141227F4141413E7F494911
:1003700049417F090909013E414151737F0808083D
:100380007F00417F41002040413F017F081422410E
:100390007F404040407F021C027F7F0408107F3E68
:1003A0004141413E7F090909063E4151215E7F09D5
:1003B000192946264949493203017F01033F40403C
:1003C000403F1F2040201F3F4038403F6314081427
:1003D0006303047804036159494D43007F4141415F
:1003E0000204081020004141417F04020102044040
:1003F00040404040000307080020545478407F28C4
:100400004444383844444428384444287F385454B9
:10041000541800087E090218A4A49C787F080404DC
:100420007800447D40002040403D007F102844007B
:1004300000417F40007C047804787C08040478380C
:1004400044444438FC1824241818242418FC7C083C
:10045000040408485454542404043F44243C4040B9
:10046000207C1C2040201C3C4030403C442810286C
:10047000444C9090907C4464544C440008364100B5
:100480000000770000004136080002010204023C2F
:100490002623263C1EA1A161123A4040207A3854FE
:1004A0005455592155557941215454784121555479
:1004B000784020545579400C1E52721239555555CA
:1004C00059395454545939555454580000457C41B5
:1004D0000002457D420001457C40F0292429F0F0CE
:1004E000282528F07C545545002054547C547C0A1F
:1004F000097F4932494949323248484832324A48EC
:1005000048303A4141217A3A42402078009DA0A0EB
:100510007D39444444393D4040403D3C24FF24243F
:10052000487E4943662B2FFC2F2BFF0929F620C05C
:10053000887E090320545479410000447D413048AD
:10054000484A32384040227A007A0A0A727D0D19F0
:10055000317D2629292F28262929292630484D4052
:1005600020380808080808080808382F10C8ACBA4E
:100570002F102834FA00007B000008142A142222CD
:10058000142A1408AA005500AAAA55AA55AA0000C0
:1005900000FF00101010FF00141414FF001010FFD3
:1005A00000FF1010F010F0141414FC001414F700E5
:1005B000FF0000FF00FF1414F404FC141417101FB4
:1005C00010101F101F1414141F00101010F0000042
:1005D00000001F101010101F10101010F01000005D
:1005E00000FF101010101010101010FF100000006D
:1005F000FF140000FF00FF00001F10170000FC04A4
:10060000F414141710171414F404F40000FF00F786
:1006100014141414141414F700F7141414171410E9
:10062000101F101F141414F4141010F010F0000018
:100630001F101F0000001F14000000FC140000F039
:1006400010F01010FF10FF141414FF141010101FDE
:1006500000000000F010FFFFFFFFFFF0F0F0F0F0EF
:10066000FFFFFF0000000000FFFF0F0F0F0F0F380C
:10067000444438447C2A2A3E147E02020606027E46
:10068000027E0263554941633844443C04407E2065
:100690001E2006027E020299A5E7A5991C2A492A76
:1006A0001C4C7201724C304A4D4D30304878483005
:1006B000BC625A463D3E494949007E0101017E2AFD
:1006C0002A2A2A2A44445F444440514A4440404430
:1006D0004A51400000FF0103E080FF000008086B62
:1006E0006B083612362436060F090F06000018185C
:1006F0000000001010003040FF0101001F01011E2A
:1007000000191D1712003C3C3C3C0000000000009A
:100710000805C208700E11241FBECFEFD1E2DEBF64
:10072000CDBF00E00CBF12E0A0E0B2E0E6E4FCE4E4
:1007300000E00BBF02C007900D92A03EB107D9F7B1
:1007400018E0A0EEB2E001C01D92A231B107E1F7BE
:1007500017E0C6E1D7E004C02297FE010E941D26E3
:10076000C031D107C9F70E94E0090C9489250C9487
:1007700000002F923F924F925F926F927F928F92E2
:100780009F92AF92BF92CF92DF92EF92FF920F9320
:100790001F93DF93CF93CDB7DEB7C654D0400FB6CB
:1007A000F894DEBF0FBECDBF98AF8FAB7AAF69AF05
:1007B0005CAF4BAF4901F02E1601BEAEADAE8DB7AA
:1007C0009EB721969FAF8EAF2197CE0101960E94D2
:1007D0002D0DAFA9B8AD4D915C91CE014C9663EB58
:1007E00075E021E00E94B00F8E8D9F8D9C838B83DE
:1007F00088A199A1AAA1BBA18D839E83AF83B8874D
:100800008CA19DA1AEA1BFA189879A87AB87BC8728
:10081000DE011D96FE01B8968DE001900D9281508B
:10082000E1F78DA99EA99B8F8A8F2E010894411C08
:10083000511CC2010E94820D182FCE014C960E94BD
:10084000400D1123A1F487E395E060E072E00E947F
:10085000650AEFA9F8AD6081718187E395E00E9498
:10086000650A87E395E067E20E94390AA9C02F2D47
:100870002150220D0E2D0150FDAD0F0F89AD9AAD07
:100880006F2D4E2D0E941B0B3101660C771C5401FD
:10089000CC24DD2488249924C201542C492EABADEC
:1008A000BCADCD01A0E0B0E027968CAF9DAFAEAF60
:1008B000BFAF279778C0FDB6EEB62296FFAE22975F
:1008C0002396EFAE23978DB79EB7861997090FB67B
:1008D000F8949EBF0FBE8DBF0DB71EB70F5F1F4FA1
:1008E000AFA9B8AD12962D913C91139740E050E01E
:1008F000C601B5010E94B325AB01BC0127968CADA2
:100900009DADAEADBFAD2797480F591F6A1F7B1F26
:10091000440F551F661F771F852D942D0E94A10D32
:10092000852D942DB801A3010E94B30D861597055E
:1009300019F4EE24FF2420C087E395E061E172E022
:100940000E94680A852D942D0E948F0D8F2D9E2D5B
:100950009C010FB6F8943EBF0FBE2DBF31C0D80129
:100960007C9111966C9189AD9AAD0E949B0B089475
:10097000E11CF11C0E5F1F4FE214F30480F322967A
:100980008FAD229723969FAD23979C010FB6F894C5
:100990003EBF0FBE2DBF0894811C911C0894A11C62
:1009A000B11CC11CD11CEDADFEAD8E169F0608F426
:1009B00082CF852D942D0E948F0D852D942D02C000
:1009C000CE0101960E94400D21968EAD9FAD2197DC
:1009D0000FB6F8949EBF0FBE8DBFCA5BDF4F0FB638
:1009E000F894DEBF0FBECDBFCF91DF911F910F9165
:1009F000FF90EF90DF90CF90BF90AF909F908F903F
:100A00007F906F905F904F903F902F900895089542
:100A100080EE92E066E047E028E00E947B0A1092B8
:100A200010031092110310921403109216030895EC
:100A3000AF92BF92CF92DF92EF92FF920F931F93EC
:100A400087E395E040E855E260E070E00E94970798
:100A500087E395E065E272E00E94650A83EB95E02A
:100A600065E00E94D510882339F487E395E06DE3B3
:100A700072E00E94680A29C087E395E065E472E0AD
:100A80000E94680A8BE093E061E045E00E943A131F
:100A9000882339F487E395E069E472E00E94680AEC
:100AA000FFCF85E992E060EE72E040E050E020E0A8
:100AB00030E000E010E0EE24FF24F0E8CF2ED12C4F
:100AC000E0EAAE2EB12C0E94B9031F910F91FF9066
:100AD000EF90DF90CF90BF90AF90089508951F9250
:100AE0000F920FB60F920BB60F9211242F933F93D4
:100AF0004F938F939F93EF93FF934091C600209164
:100B00005703309158032F5F3F4F2F733070809100
:100B1000590390915A032817390759F0E091570368
:100B2000F0915803E95EFC4F4083309358032093C3
:100B30005703FF91EF919F918F914F913F912F918B
:100B40000F900BBE0F900FBE0F901F901895089539
:100B50001F920F920FB60F920BB60F9211242F9384
:100B60003F934F938F939F93EF93FF934091CE00CA
:100B70002091DF033091E0032F5F3F4F2F733070E0
:100B80008091E1039091E2032817390759F0E09131
:100B9000DF03F091E003E156FC4F40833093E00324
:100BA0002093DF03FF91EF919F918F914F913F91A0
:100BB0002F910F900BBE0F900FBE0F901F901895A6
:100BC00008951F920F920FB60F920BB60F92112439
:100BD0002F933F934F938F939F93EF93FF93409166
:100BE000D60020916704309168042F5F3F4F2F7328
:100BF00030708091690490916A042817390759F080
:100C0000E0916704F0916804E95DFB4F4083309305
:100C1000680420936704FF91EF919F918F914F910A
:100C20003F912F910F900BBE0F900FBE0F901F9012
:100C3000189508951F920F920FB60F920BB60F9250
:100C400011242F933F934F938F939F93EF93FF9391
:100C5000409136012091EF043091F0042F5F3F4F17
:100C60002F7330708091F1049091F20428173907A6
:100C700059F0E091EF04F091F004E155FB4F40830F
:100C80003093F0042093EF04FF91EF919F918F91A7
:100C90004F913F912F910F900BBE0F900FBE0F9071
:100CA0001F901895E0914305F0914405E05CFF4FDB
:100CB0008191919120813181821B930B8F73907070
:100CC000892B11F00E946E05E0916205F091630599
:100CD000E05CFF4F8191919120813181821B930BC8
:100CE0008F739070892B11F00E94A705E091810508
:100CF000F0918205E05CFF4F8191919120813181DB
:100D0000821B930B8F739070892B11F00E94E0056A
:100D1000E091A005F091A105E05CFF4F81919191D8
:100D200020813181821B930B8F739070892B11F07E
:100D30000E94190608951F920F920FB60F920BB6DC
:100D40000F9211242F933F938F939F93EF93FF93D1
:100D500020919B0330919C0380919D0390919E0371
:100D60002817390731F48091C1008F7D8093C1002D
:100D700014C0E0919D03F0919E03E55AFC4F208141
:100D800080919D0390919E0301968F739070909334
:100D90009E0380939D032093C600FF91EF919F9146
:100DA0008F913F912F910F900BBE0F900FBE0F9020
:100DB0001F9018951F920F920FB60F920BB60F92BD
:100DC00011242F933F938F939F93EF93FF93209141
:100DD000230430912404809125049091260428173F
:100DE000390731F48091C9008F7D8093C90014C008
:100DF000E0912504F0912604ED51FC4F2081809173
:100E000025049091260401968F7390709093260488
:100E1000809325042093CE00FF91EF919F918F91B5
:100E20003F912F910F900BBE0F900FBE0F901F9010
:100E300018951F920F920FB60F920BB60F921124B6
:100E40002F933F938F939F93EF93FF932091AB0446
:100E50003091AC048091AD049091AE04281739070D
:100E600031F48091D1008F7D8093D10014C0E09146
:100E7000AD04F091AE04E559FB4F20818091AD04A3
:100E80009091AE0401968F7390709093AE0480930E
:100E9000AD042093D600FF91EF919F918F913F91E8
:100EA0002F910F900BBE0F900FBE0F901F901895B3
:100EB0001F920F920FB60F920BB60F9211242F9321
:100EC0003F938F939F93EF93FF932091330530913E
:100ED000340580913505909136052817390731F48E
:100EE000809131018F7D8093310114C0E0913505EF
:100EF000F0913605ED50FB4F2081809135059091A2
:100F0000360501968F739070909336058093350562
:100F100020933601FF91EF919F918F913F912F91F7
:100F20000F900BBE0F900FBE0F901F901895AF92B1
:100F3000BF92DF92EF92FF920F931F93CF93DF93B5
:100F4000EC017A018B01DD24403081EE580780E00E
:100F5000680780E0780711F0DD24D39491E0A92E92
:100F6000B12CEC89FD89DD2069F0C5010E8C02C031
:100F7000880F991F0A94E2F7808360E079E08DE39F
:100F800090E005C0108260E874E88EE190E0A8016E
:100F900097010E94F925215030404040504056951D
:100FA00047953795279580E12030380720F0DD20E0
:100FB00011F0DD24D6CFE889F9893083EA89FB89ED
:100FC0002083EE89FF89408121E030E0C9010A8C4D
:100FD00002C0880F991F0A94E2F7482B4083EE89DC
:100FE000FF894081C9010B8C02C0880F991F0A94A8
:100FF000E2F7482B4083EE89FF894081C9010C8CC0
:1010000002C0880F991F0A94E2F7482B4083EE89AB
:10101000FF8980810D8C02C0220F331F0A94E2F7F2
:10102000209528232083DF91CF911F910F91FF906E
:10103000EF90DF90BF90AF900895DC011C96ED918A
:10104000FC911D97E05CFF4F21913191808191814E
:10105000281B390B2F733070C9010895DC011C96D1
:10106000ED91FC911D97E05CFF4F20813181E054B0
:10107000F040DF01AE5BBF4F8D919C911197281717
:10108000390719F42FEF3FEF07C08D919C91E80FBE
:10109000F91F8081282F30E0C9010895DC011C96DA
:1010A000ED91FC911D97E05CFF4F20813181E05470
:1010B000F040DF01AE5BBF4F8D919C9111972817D7
:1010C000390719F42FEF3FEF10C08D919C911197C4
:1010D000E80FF91F20818D919C91119701968F73D4
:1010E000907011969C938E9330E0C9010895FC0195
:1010F00086859785DC01A05CBF4FFC01EE5BFF4F4E
:101100002D913C9111978081918128173907C1F762
:101110000895CF93DF93EC01EE85FF85E05CFF4FF0
:1011200020813181E054F0402F5F3F4F2F733070AA
:10113000DF01AE5BBF4F8D919C9111972817390746
:10114000D1F3E05CFF4F80819181E054F040E80FE3
:10115000F91F6083EE85FF85E05CFF4F31832083BC
:10116000EE89FF89208181E090E00D8C02C0880F1C
:10117000991F0A94E2F7282B208381E090E0DF9109
:10118000CF9108951F9310923A051092390528EED9
:1011900033E040E050E020933B0530933C05409322
:1011A0003D0550933E0563EA72E070933805609305
:1011B000370587E193E090934405809343058BE5E1
:1011C00093E0909346058093450585EC90E09093DD
:1011D00048058093470584EC90E090934A058093FE
:1011E000490580EC90E090934C0580934B0581EC91
:1011F00090E090934E0580934D0586EC90E090939F
:10120000500580934F0514E010935105B3E0B0935F
:101210005205A7E0A0935305F5E0F0935405E1E0F3
:10122000E0935505109259051092580520935A05E0
:1012300030935B0540935C0550935D0570935705B3
:10124000609356058FE993E0909363058093620560
:1012500083EE93E090936505809364058DEC90E0B8
:1012600090936705809366058CEC90E090936905F8
:101270008093680588EC90E090936B0580936A05F5
:1012800089EC90E090936D0580936C058EEC90E076
:1012900090936F0580936E0510937005B093710560
:1012A000A0937205F0937305E0937405109278058E
:1012B000109277052093790530937A0540937B054A
:1012C00050937C05709376056093750587E294E0F2
:1012D00090938205809381058BE694E0909384053A
:1012E0008093830585ED90E0909386058093850536
:1012F00084ED90E0909388058093870580ED90E0E1
:1013000090938A058093890581ED90E090938C05F8
:1013100080938B0586ED90E090938E0580938D05EC
:1013200010938F05B0939005A0939105F0939205CB
:10133000E0939305109297051092960520939805D7
:101340003093990540939A0550939B0570939505AA
:10135000609394058FEA94E09093A1058093A00593
:1013600083EF94E09093A3058093A20585E391E039
:101370009093A5058093A40584E391E09093A7053D
:101380008093A60580E391E09093A9058093A8053A
:1013900081E391E09093AB058093AA0586E391E009
:1013A0009093AD058093AC051093AE05B093AF0557
:1013B000A093B005F093B105E093B2051F91089595
:1013C000CF93DF930E94C8200E941805C2E5D6E0A3
:1013D0000E9407052097E1F30E945206F9CFCF92B1
:1013E000DF92EF92FF920F931F93CF93DF937C01D5
:1013F0006B018A01C0E0D0E00FC0D6016D916D0194
:10140000D701ED91FC910190F081E02DC701199574
:10141000C80FD91F015010400115110571F7CE01F9
:10142000DF91CF911F910F91FF90EF90DF90CF90C0
:101430000895EF92FF920F931F938C01DC01ED91C1
:10144000FC910190F081E02D6DE019957C01D801AF
:10145000ED91FC910190F081E02DC8016AE01995B1
:101460009C012E0D3F1DC9011F910F91FF90EF9020
:101470000895EF92FF920F931F937C01DC01ED9191
:10148000FC910190F081E02D19958C01C7010E941B
:10149000190A080F191FC8011F910F91FF90EF90B3
:1014A0000895CF93DF93DB010D900020E9F71197AA
:1014B000A61BB70BEC01E881F9810280F381E02DD6
:1014C000AD011995DF91CF9108950E94510A0895B9
:1014D000EF92FF920F931F937C010E94510A8C019F
:1014E000C7010E94190A080F191FC8011F910F9107
:1014F000FF90EF900895FC011382128283EB92E03B
:101500009183808360A341A322A381E0878B14A2EF
:1015100013A20895DC0157968C915797882329F0E0
:101520006EBD0DB407FEFDCF089530E840E050E0F9
:1015300070E0832F90E0862397235896ED91FC91DD
:10154000599795962C919597892B21F08081822B24
:10155000808304C080812095282320835A96ED91B2
:10156000FC915B97808196969C919697892B8083BE
:101570005A96ED91FC915B97908196968C919697F7
:1015800080958923808336954F5F5F4F48305105A2
:1015900081F608950F931F938C01DC015E96ED9107
:1015A000FC915F97908198968C919897809589236C
:1015B00080835C96ED91FC915D97908197968C91DC
:1015C000809589238083C8010E948A0AD8015C968D
:1015D000ED91FC915D97808197969C91892B8083FA
:1015E0001F910F9108950F931F938C01DC015E965C
:1015F000ED91FC915F97808198969C919897892BAB
:1016000080835C96ED91FC915D97908197968C918B
:10161000809589238083C8010E948A0AD8015C963C
:10162000ED91FC915D97808197969C91892B8083A9
:101630001F910F910895CF92DF92EF92FF920F9337
:101640001F937C01162FC42ED22E6AE20E94CA0A72
:10165000C70160E00E94F30AF70161A5610FC701AD
:101660000E94F30AC70160E00E94F30AF70161A536
:101670006D0DC7010E94F30AC7016BE20E94CA0AFE
:10168000C70160E00E94F30AF70162A56C0DC70173
:101690000E94F30AC70160E00E94F30AF70162A505
:1016A000600FC7010E94F30AC7016CE20E94CA0AD8
:1016B0001F910F91FF90EF90DF90CF900895EF92E0
:1016C000FF920F931F93CF93DF93EC017B0128854B
:1016D00021500A85015060E040E00E941B0BEE8D16
:1016E000FF8D808198A5892B8083EC8DFD8D908165
:1016F0008FA18095892380831A850EC0088509C033
:10170000CE016F2D0E948A0ACE016E2D0E948A0A98
:1017100001500023A9F71150112381F7EC8DFD8DA5
:1017200080819FA1892B8083DF91CF911F910F91A1
:10173000FF90EF900895FF920F931F938C01F62E68
:10174000672FDC015E96ED91FC915F978081989602
:101750009C919897892B80835C96ED91FC915D9785
:10176000908197968C91809589238083C8010E94EF
:101770008A0AC8016F2D0E948A0AD8015C96ED91F1
:10178000FC915D97808197969C91892B80831F9116
:101790000F91FF900895FF920F931F93CF93DF93C4
:1017A000EC01F22E132F77FD2EC0888599856817DE
:1017B00079074CF557FD27C08A859B85481759073F
:1017C00014F5262F2F5F042F0F5FCE010E941B0BF5
:1017D000EE8DFF8D808198A5892B8083EC8DFD8D0A
:1017E00090818FA1809589238083CE01612F0E94F3
:1017F0008A0ACE016F2D0E948A0AEC8DFD8D8081B0
:101800009FA1892B8083DF91CF911F910F91FF9032
:101810000895DF92EF92FF920F931F93CF93DF9380
:10182000EC01FB017901D02E88859985681779072D
:10183000D4F52A853B8542175307ACF5C701840FC1
:10184000951F281739071CF47901E41AF50A042FAB
:1018500001500E0DCE016E2F2E2F0E941B0BEE8D10
:10186000FF8D808198A5892B8083EC8DFD8D9081E3
:101870008FA180958923808308C0CE01612F0E94AB
:101880008A0ACE016D2D0E948A0A0894E108F108A7
:101890008FEFE8168FEFF80681F7EC8DFD8D8081D4
:1018A0009FA1892B8083DF91CF911F910F91FF9092
:1018B000EF90DF900895DF92EF92FF920F931F93C6
:1018C000CF93DF93EC01FA017901D02E2885398579
:1018D00062177307D4F58A859B8548175907ACF5BD
:1018E000C701860F971F281739071CF47901E61ADC
:1018F000F70A262F21502E0DCE014E2F0E2F0E94BB
:101900001B0BEE8DFF8D808198A5892B8083EC8D3C
:10191000FD8D90818FA180958923808308C0CE01A1
:10192000612F0E948A0ACE016D2D0E948A0A0894B6
:10193000E108F1088FEFE8168FEFF80681F7EC8DDC
:10194000FD8D80819FA1892B8083DF91CF911F9195
:101950000F91FF90EF90DF900895AF92BF92CF92DA
:10196000DF92EF92FF920F931F93CF93DF936C015F
:101970005901E801DC0118962D913C9119976217E5
:1019800073070CF057C01A96ED91FC911B974E17F8
:101990005F070CF04FC0C501860F971F2817390746
:1019A0001CF45901A61AB70ACE01840F951FE81737
:1019B000F9071CF4EF01C41BD50B262F21502A0D6B
:1019C000042F01500C0FC6010E941B0BD6015E961E
:1019D000ED91FC915F97808198969C919897892BC7
:1019E00080835C96ED91FC915D97908197968C91A8
:1019F0008095892380838E010EC0C6016F2D0E94C1
:101A00008A0AC6016E2D0E948A0A21971C161D069D
:101A1000A4F3015010401016110614F4E501F6CF9E
:101A2000D6015C96ED91FC915D97808197969C9193
:101A3000892B8083DF91CF911F910F91FF90EF90C1
:101A4000DF90CF90BF90AF900895662311F460E2CD
:101A500001C061E20E94CA0A0895FC011382128249
:101A600088EE93E0A0E0B0E084839583A683B783FB
:101A70008BEC92E091838083128E118E14860895F0
:101A8000FC018BEC92E0918380830895DF93CF93E8
:101A90000F92CDB7DEB7FC016983A081B1811296A8
:101AA0002D913C911397BE016F5F7F4F41E050E055
:101AB000F90119950F90CF91DF910895DC015996A6
:101AC000ED91FC915A97309719F420E030E018C05E
:101AD000238934894589568982859385A485B5856E
:101AE000281B390B4A0B5B0B2030B0E83B07B0E0FA
:101AF0004B07B0E05B0720F02FEF3FE740E050E0FE
:101B0000C9010895DC015996ED91FC915A973097DF
:101B100011F480E008958581811181E00895CF93CB
:101B2000DF93EC01898D9A8D009741F00E945E153C
:101B3000898D9A8D0E94F1241A8E198EDF91CF9192
:101B40000895FC01818D928D009711F480E0089535
:101B50000E944E140895FC01818D928D009711F022
:101B60000E9414150895FC01818D928D009719F43F
:101B700020E030E003C00E9435169C01C9010895A1
:101B8000DF93CF930F92CDB7DEB7FC01818D928D9D
:101B9000009749F0BE016F5F7F4F41E050E00E9427
:101BA0003516019719F02FEF3FEF03C08981282FD9
:101BB00030E0C9010F90CF91DF910895EF92FF922D
:101BC0000F931F93DF93CF930F92CDB7DEB77C01B6
:101BD000DC0159968D919C915A97009719F400E079
:101BE00010E01FC0BE016F5F7F4F41E050E00E94D8
:101BF0003516019719F00FEF1FEF13C08981082FD9
:101C000010E0D7015996ED91FC915A974285538582
:101C1000648575854150504060407040CF010E94FE
:101C20004E14C8010F90CF91DF911F910F91FF903B
:101C3000EF900895CF93DF93EC01E98DFA8D309703
:101C400061F013821282CF010E947A189C01E98D03
:101C5000FA8D82819381892B31F081E090E09B8322
:101C60008A8320E030E0C901DF91CF910895EF929F
:101C7000FF920F931F93CF93DF93EC01F62EE72E85
:101C80008A011B821A8288EE93E0A0E0B0E08C8388
:101C90009D83AE83BF838BEC92E0998388838DE133
:101CA00090E00E9454249A8F898F009791F0DC0174
:101CB0008F2D9E2D9C01F9018DE101900D92815097
:101CC000E1F7CE010C96B8014CE050E00E94A4254B
:101CD000188EDF91CF911F910F91FF90EF90089593
:101CE0001092B8051092B9051092BC051092BE056D
:101CF00082E090E0A0E0B0E08093BF059093C00543
:101D0000A093C105B093C2051092D6051092E005CC
:101D10001092DF058BED92E09093DE058093DD0558
:101D20001092E20508952F923F924F925F926F9228
:101D30007F928F929F92AF92BF92CF92DF92EF925B
:101D4000FF920F931F93DF93CF93CDB7DEB7C754A6
:101D5000D0400FB6F894DEBF0FBECDBF582E492E2F
:101D6000FB013A01190184A595A5998B888B2BED70
:101D700032E03F872E8786A58A8B87A58B8B80A92B
:101D800091A9A2A9B3A98C8B9D8BAE8BBF8B84A983
:101D900095A9A6A9B7A9888F998FAA8FBB8F80AD67
:101DA00091ADA2ADB3AD8C8F9D8FAE8FBF8F84AD43
:101DB00088A3FD9681919191A191B19189A39AA354
:101DC000ABA3BCA381919191A191B1918DA39EA34D
:101DD000AFA3B8A7808191819AA789A71EA61DA647
:101DE0003CA72BA718AA7A018E01025F1F4F3BE286
:101DF000A32EB12CAC0EBD1E4E010894811C911C6B
:101E000035C0D7018C918F3221F40894E11CF11C6C
:101E10002DC0422F4E194D3008F04CE0C42EDD2469
:101E2000C401B701A6010E94A425F401EC0DFD1D1B
:101E30001082C5010E945E15C501B801A40121E010
:101E40000E94A61A882351F4E52DF42D13821282E4
:101E50008BED92E091838083158266C0EC0CFD1CB3
:101E6000C8010E945E15C50158018C01C7016FE2CF
:101E700070E00E9499259C01009719F6E618F70872
:101E8000F101F182E082E52DF42DD80112968D91B9
:101E90009C911397938382838BED92E0918380834F
:101EA00014968C911497848315968C91159785833D
:101EB00016962D913D914D915C911997268337830C
:101EC000408751871A962D913D914D915C911D97B8
:101ED00022873387448755871E962D913D914D91DA
:101EE0005C91519726873787408B518B52968C9106
:101EF0005297828B53962D913D914D915C915697BF
:101F0000238B348B458B568B57962D913D914D915C
:101F10005C915A97278B308F418F528F5B968D91B2
:101F20009C915C97948F838F852D942DC95BDF4F97
:101F30000FB6F894DEBF0FBECDBFCF91DF911F91DA
:101F40000F91FF90EF90DF90CF90BF90AF909F9058
:101F50008F907F906F905F904F903F902F9008955B
:101F60009F92AF92BF92CF92DF92EF92FF920F9328
:101F70001F93DF93CF93CDB7DEB7C657D0400FB6D0
:101F8000F894DEBF0FBECDBFC82E992E8A01D22E87
:101F900043E0A42EB12CAC0EBD1EC501A8019E01CC
:101FA0002F5F3F4F0E94930EE980FA80E00EF11EF2
:101FB000F70180814BED52E02885882309F03FC06E
:101FC0008D819E819BA38AA359A348A38F818CA353
:101FD0002DA389859A85AB85BC858EA39FA3A8A7D1
:101FE000B9A78D859E85AF85B8898AA79BA7ACA721
:101FF000BDA789899A89AB89BC898EA79FA7A8AB01
:10200000B9AB8D898AAB8E899F89A88DB98D8BAB31
:102010009CABADABBEAB8A8D9B8DAC8DBD8D8FABBC
:1020200098AFA9AFBAAF8E8D9F8D9CAF8BAF8C2D23
:10203000992DBE01605E7F4F4DE852E09FC0FE01CA
:10204000FF96118210825EAF4DAFFE01EE5BFF4F37
:1020500010822223A9F02250CE01CD96223048F4DE
:102060006DED75E0A7012D2D0E94A61A882381F43D
:1020700007C0B501A7012D2D0E94A61A882329F4B7
:102080008C2D992D0E942D0D7BC0C5010E945E15DF
:10209000F6E0DF2259F0FE01E05BFF4F4081518105
:1020A00062817381CE01CD960E944E149E01265A04
:1020B0003F4FFE01FF9680819181F90193838283D6
:1020C0008BED92E091838083FE01EF5BFF4F808177
:1020D000F9018483FE01EE5BFF4F8081F901858366
:1020E000FE01ED5BFF4F80819181A281B381F901F7
:1020F00086839783A087B187FE01E95BFF4F8081CC
:102100009181A281B381F90182879387A487B587E2
:10211000FE01E55BFF4F80819181A281B381F901CE
:1021200086879787A08BB18BFE01E15BFF4F808193
:10213000F901828BFE01E05BFF4F80819181A281DA
:10214000B381F901838B948BA58BB68BFE01EC5A7E
:10215000FF4F80819181A281B381F901878B908F9C
:10216000A18FB28FFE01E85AFF4F80819181F90162
:10217000948F838F8C2D992DB901A7010E94370E62
:102180008C2D992DCA58DF4F0FB6F894DEBF0FBEC5
:10219000CDBFCF91DF911F910F91FF90EF90DF9016
:1021A000CF90BF90AF909F9008950F931F93CF93C0
:1021B000DF93EC01462F61E00E943A138823D1F0AF
:1021C0008E01045F1F4FC801BE0141E00E94471C01
:1021D000882339F4C801BE0140E00E94471C8823CF
:1021E00049F0CE018A96B8010E949417882319F00D
:1021F00081E001C080E0DF91CF911F910F910895A0
:10220000FC01673020F086E1858380E00895262F69
:1022100030E060FD02C0663019F48DB58E7F02C0DB
:102220008DB581608DBD8CB58C7F8CBD4CB522FD8C
:1022300002C090E001C092E036952795822F817010
:10224000842B892B8CBD81E00895FF920F931F93FF
:10225000CF93DF938B010E94BA20EB01FF24FA9405
:10226000FEBC0DB407FEFDCF8EB58F3F11F481E0AB
:1022700008C00E94BA206C1B7D0B6017710780F3A9
:1022800080E0DF91CF911F910F91FF900895FC01A5
:10229000848160E00E94DD210895FC01848161E079
:1022A0000E94DD210895DC016EBDFA0120E030E0DE
:1022B0000DB407FEFDCF80818EBD0DB407FEFDCFAE
:1022C00081818EBD2E5F3F4F329682E020303807ED
:1022D00079F70DB407FEFDCF8FEF8EBD0DB407FE6D
:1022E000FDCF8FEF8EBD0DB407FEFDCF8FEF8EBDFE
:1022F0000DB407FEFDCF8EB51A968C931A978F7189
:10230000853011F481E0089581E115968C9315973D
:10231000CD010E944D1180E00895FF920F931F930D
:10232000CF93DF93EC010E94BA208B01FF24FA9433
:1023300009C00E94BA20601B710B6D52714010F0F1
:102340008FE00DC0FEBC0DB407FEFDCF8EB58A87B1
:102350008F3F79F38E3F11F481E006C08DE08D83CD
:10236000CE010E944D1180E0DF91CF911F910F911E
:10237000FF900895CF93DF93EC018E818823D1F0F5
:102380008FEF8EBD2F8138854FEF04C00DB407FE4F
:10239000FDCF4EBD2F5F3F4FC90101978150924045
:1023A000A8F338872F830DB407FEFDCFCE010E941E
:1023B0004D111E82DF91CF910895DF92EF92FF922F
:1023C0000F931F93CF93DF93EC01D62E79018A01EF
:1023D0000E94BA11CE010E944711CE016CE271E059
:1023E0000E9425118D2D80648EBD0DB407FEFDCF9A
:1023F00028E130E0D801C701022E04C0B695A795A8
:10240000979587950A94D2F78EBD0DB407FEFDCF40
:10241000285030408FEF283F380761F7DD2011F456
:1024200085E906C088E0D81611F487E801C08FEF6F
:102430008EBD0DB407FEFDCF90E02FEF2EBD0DB485
:1024400007FEFDCF8EB587FF02C09150B9F78A878E
:10245000DF91CF911F910F91FF90EF90DF90089542
:10246000CF92DF92EF92FF920F931F93CF93DF9360
:10247000EC017A018B016901411551056105710576
:1024800011F482E137C08B85833039F029E0EE0CFE
:10249000FF1C001F111F2A95D1F7CE0168E1A8018A
:1024A00097010E94DD11882311F084E023C0CE0142
:1024B0006EEFA6010E9453118823E9F0CE0168E572
:1024C00072E00E942511882311F485E113C0CE012A
:1024D0006DE020E030E040E050E00E94DD11882314
:1024E00041F48FEF8EBD0DB407FEFDCF8EB588236E
:1024F00079F084E18D83CE010E944D1180E0DF915F
:10250000CF911F910F91FF90EF90DF90CF900895A2
:10251000CE010E944D1181E0F2CF8F929F92AF9237
:10252000BF92CF92DF92EF92FF920F931F93CF93C0
:10253000DF93EC015A016B0149010115110509F402
:102540007BC0C801820F931F8150924008F06FC07A
:102550008E81882371F088819981AA81BB81481777
:1025600059076A077B0729F48F8198858816990691
:1025700018F5A882B982CA82DB828B85833039F054
:1025800069E0AA0CBB1CCC1CDD1C6A95D1F7CE01FE
:1025900061E1A60195010E94DD11882319F083E015
:1025A0008D8345C0CE010E948D11882309F43FC060
:1025B00018861F8281E08E838FEF8EBD8F81988574
:1025C0002FEF05C00DB407FEFDCF2EBD0196881577
:1025D0009905C0F398878F83D801119720E030E0E8
:1025E0009FEF0BC00DB407FEFDCF8EB5F701E20FD4
:1025F000F31F80839EBD2F5F3F4F2A173B0790F349
:102600000DB407FEFDCF8EB5AE0DBF1D8C932F818F
:102610003885200F311F38872F838985882319F04B
:102620002050324048F0CE010E94BA1105C0CE01C0
:102630000E944D1180E001C081E0DF91CF911F9198
:102640000F91FF90EF90DF90CF90BF90AF909F9051
:102650008F900895EF92FF920F931F93790120E0DE
:1026600030E000E012E00E948D121F910F91FF9068
:10267000EF900895BF92CF92DF92EF92FF920F9367
:102680001F93CF93DF93EC01B62E1B8619861E8213
:102690001D824C830E94BA206B018C8161E00E94F4
:1026A0002A21CE010E944D1182E360E00E942A217E
:1026B00083E361E00E942A2184E361E00E942A21F1
:1026C00085E361E00E942A2185E361E00E94DD212B
:1026D00083E58CBD8DB58E7F8DBD80E09FEF9EBD67
:1026E0000DB407FEFDCF8F5F8A30C9F7CE010E947F
:1026F000471109C00E94BA206C197D09615D7740BD
:1027000010F081E05EC0CE0160E020E030E040E00B
:1027100050E00E94DD11182F8A87813059F7CE01D1
:1027200068E02AEA31E040E050E00E94DD1182FFDB
:1027300002C01B8711C080E02FEF2EBD0DB407FE35
:10274000FDCF9EB58F5F8430C1F79A879A3A11F01A
:1027500082E037C082E08B878B85823021F0EE24C7
:10276000FF2487010FC0E12CF12C012DF0E41F2F75
:1027700009C00E94BA206C197D09615D774010F094
:1027800088E01FC0CE0167E320E030E040E050E089
:102790000E94DD11CE0169E2A80197010E94DD11BE
:1027A0008A87882331F78B85823031F5CE016AE341
:1027B00020E030E040E050E00E94DD11882339F055
:1027C00086E08D83CE010E944D1180E01CC08FEF0A
:1027D0008EBD0DB407FEFDCF8EB5807C803C11F41C
:1027E00083E08B8780E09FEF9EBD0DB407FEFDCF99
:1027F0002EB58F5F8330C1F7CE010E944D11CE01FF
:102800006B2D0E940011DF91CF911F910F91FF90CE
:10281000EF90DF90CF90BF900895CF93DF93EC01BE
:10282000DB0180E090E020E2FD01E80FF91F20834A
:1028300001968B309105C1F757E040E021C02E3260
:1028400019F084EE90E007C05A3019F15AE048E0E0
:1028500017C03217F1F0FC01019634913323C9F708
:102860005417B8F02132A8F02F3798F4822F8156F0
:102870008A3108F42052FD01E40FF11D20834F5FDF
:1028800029912223E1F690E08C91803219F091E0B9
:1028900001C090E0892FDF91CF9108956F927F92D0
:1028A0008F929F92AF92BF92CF92DF92EF92FF9260
:1028B0000F931F93CF93DF93EC017A018B012D814E
:1028C000222309F480C08B899C89AD89BE89841735
:1028D0009507A607B70708F476C085C0E114F10490
:1028E0000105110549F41E821F82188619861A8671
:1028F0001B861C861D8665C02A853B854C855D85AB
:10290000EB8DFC8D858590E009962150304040404C
:10291000504039014A01082E04C096948794779458
:1029200067940A94D2F72F5F3F4F4F4F5F4F089441
:10293000E108F108010911095701680104C0D694A2
:10294000C794B794A7948A95D2F70894E11CF11C18
:10295000011D111DA614B704C804D90428F02115BF
:1029600031054105510549F48F89988DA98DBA8D9E
:102970008E839F83A887B98716C0A618B708C80892
:10298000D90811C04E815F81688579858B8D9C8DBA
:1029900094010E94281E0894A108B108C108D1081A
:1029A000882331F410C086E0882E912C8C0E9D1E59
:1029B000A114B104C104D10429F7EA86FB860C876F
:1029C0001D8781E001C080E0DF91CF911F910F91C1
:1029D000FF90EF90DF90CF90BF90AF909F908F903F
:1029E0007F906F900895223009F078CFE6CFCF9393
:1029F000DF93EC01462F6E857F85888999890E9437
:102A00000C1C882319F420E030E00AC08A89282FA2
:102A100030E095E0220F331F9A95E1F722503A4FAC
:102A2000C901DF91CF9108950F931F93CF93DF9347
:102A30008C01FC0185818823D9F1848187FF35C011
:102A4000C80161E00E94F714EC01009789F1F801D8
:102A50008581823040F483899489A589B6898C8FD9
:102A60009D8FAE8FBF8FF8018789908D9B8F8A8F46
:102A70008789908DA18DB28DCD01AA27BB279D8B13
:102A80008C8BE091FC05F091FD05309751F0BE0173
:102A90006A5E7F4FCE0148961995888D998D9B8BE4
:102AA0008A8BF80184818F7784830E94AD1B01C0DB
:102AB00080E0DF91CF911F910F910895CF93DF9325
:102AC000EC010E941415882311F01D8281E0DF9132
:102AD000CF9108956F927F928F929F92AF92BF9203
:102AE000CF92DF92EF92FF920F931F93DF93CF93DA
:102AF00000D00F92CDB7DEB77C015A016B01DC012B
:102B000015968C911597813009F08FC014968C9191
:102B100081FF8BC09EC00097A105B10511F481E033
:102B200085C0F7016284738484849584C701B601EB
:102B3000A5010E944E14882309F477C0D7015B9643
:102B40008D919C915C97A114B104C104D10489F4C6
:102B500057964D915D916D917C915A970E949B1E65
:102B6000882309F462C0F701178A108E118E128E25
:102B70003DC0D70116964D915D916D917C9119974D
:102B80009E012F5F3F4F0E94281E882309F44DC0ED
:102B9000D7015B96ED91FC915C9749815A816B81DD
:102BA0007C818789803129F088EF9FEFAFEFBFE00C
:102BB00004C088EF9FEFA0E0B0E0481759076A070C
:102BC0007B07A0F4CF010E949B1E882371F1F701BF
:102BD0004681578160857185838D948D0FEF1FEF3E
:102BE0002FEF3FE00E948C1D8823F9F0D701539608
:102BF000AD92BD92CD92DC92569714968C9114971B
:102C0000806814968C93C7010E941415882369F07C
:102C1000B601A5016A147B048C049D0410F4B40170
:102C2000A301C7010E944E1401C080E00F900F90D5
:102C30000F900F90CF91DF911F910F91FF90EF9028
:102C4000DF90CF90BF90AF909F908F907F906F90CC
:102C50000895F70183899489A589B6898417950712
:102C6000A607B70708F057CFE0CF2F923F924F92B9
:102C70005F926F927F928F929F92AF92BF92CF920C
:102C8000DF92EF92FF920F931F93CF93DF93EC01AC
:102C90002A018D81882309F4C6C08C8180FFC3C0BE
:102CA000D8C025014E185F084B0176E0272E312C45
:102CB0002C0E3D1E3201B1C02A853B854C855D85B9
:102CC0006FEFA62E61E0B62EA222B3228D8179018C
:102CD0008A0199E016950795F794E7949A95D1F7AC
:102CE000EB8DFC8D823049F4428D538D648D758D52
:102CF0004E0D5F1D601F711F3FC0D480DA94DE202F
:102D0000A114B104D9F4DD20C9F421153105410520
:102D1000510549F48F89988DA98DBA8D8E839F8333
:102D2000A887B9870BC04E815F8168857985CF01FF
:102D300091010E94281E882309F475C0EB8DFC8D3B
:102D40004E815F8168857985425050406040704077
:102D5000058404C0440F551F661F771F0A94D2F7DD
:102D600086859785A089B189480F591F6A1F7B1FE7
:102D70004D0D511D611D711D80E092E08A199B0966
:102D800063018615970508F46C018C8186FD06C0E9
:102D900080E0C81682E0D80609F073C080919B02DB
:102DA00090919C02A0919D02B0919E0248175907F4
:102DB0006A077B0709F465C08091FE079091FF07C1
:102DC0009501860174010E948D12882361F18C0C9B
:102DD0009D1C12C0950122503A4FA9014C0D5D1D5A
:102DE000D401F90102C081918D93E417F507D9F759
:102DF000E21BF30B8E0E9F1E960140E050E08A8589
:102E00009B85AC85BD85820F931FA41FB51F8A8744
:102E10009B87AC87BD876C187D086114710409F02D
:102E20004BCFA20102C04FEF5FEFCA01DF91CF91FC
:102E30001F910F91FF90EF90DF90CF90BF90AF90D8
:102E40009F908F907F906F905F904F903F902F90CA
:102E50000895AB88BC88CD88DE88EA84FB840C8525
:102E60001D859A0140E050E0D601C5018E199F09E9
:102E7000A00BB10B82179307A407B50708F411CF75
:102E800013CFCB01BA0140E00E940C1C882309F04B
:102E9000A1CFC9CFCF92DF92EF92FF920F931F93F2
:102EA000DF93CF930F92CDB7DEB76C01FC01858124
:102EB000823070F0E284F38404851585C601BE017A
:102EC0006F5F7F4F41E050E00E943516019769F037
:102ED00020E030E0C9010F90CF91DF911F910F9159
:102EE000FF90EF90DF90CF900895F6018285938553
:102EF000A485B5854F96A11DB11D82879387A487B0
:102F0000B587F5E016950795F794E794FA95D1F70C
:102F10008E2D8F70282F30E0E5E0220F331FEA95C9
:102F2000E1F722503A4FD6CF0F931F93CF93DF9301
:102F3000EC018B018D81882309F041C0FB01878959
:102F40008031B1F482E08D831F8A188E198E1A8E1B
:102F5000808D918DA0E0B0E045E0880F991FAA1FF9
:102F6000BB1F4A95D1F78B8B9C8BAD8BBE8B15C04D
:102F7000803229F583E08D83FB01428D538D648D72
:102F8000758D4F8B588F698F7A8F9E012D5E3F4FC5
:102F9000C8010E94F41E882391F01C8F0B8F81E0E2
:102FA0008C831E821F82188619861A861B861C86B1
:102FB0001D861E861F86188A198A1A8A01C080E01B
:102FC000DF91CF911F910F9108951F93CF93DF93BE
:102FD000EC01142FE62FF0E075E0EE0FFF1F7A955D
:102FE000E1F7E250FA4F8385817121F0842F8274DA
:102FF00009F054C06A8B80919B0290919C02A09131
:103000009D02B0919E028E879F87A88BB98B848981
:103010009589A0E0B0E0BC0155274427828D938DAF
:10302000A0E0B0E0482B592B6A2B7B2B4F8B588F9D
:10303000698F7A8F838590E088719070009751F442
:10304000848D958DA68DB78D8B8B9C8BAD8BBE8B18
:1030500081E00CC0409711F59E012D5E3F4F8B8D96
:103060009C8D0E94F41E8823C9F084E08D83812FFB
:103070008F708C831E821F82188619861A861B8683
:103080001C861D8616FD02C081E009C0CE0140E00D
:1030900050E060E070E00E946A1501C080E0DF91BE
:1030A000CF911F910895CF93DF93EC019C012A5F8C
:1030B0003F4F8B8D9C8D41E050E060E070E00E94BE
:1030C000631F8823A1F08F89988DA98DBA8D0097F1
:1030D000A105B10559F48E819F81A885B9858F8B93
:1030E000988FA98FBA8F8C8180688C8381E0DF9163
:1030F000CF9108952F923F924F925F927F928F923D
:103100009F92AF92BF92CF92DF92EF92FF920F9376
:103110001F93DF93CF9300D000D0CDB7DEB76C0103
:10312000162F072F5E834D83DC0115968C91159722
:10313000813009F070C114968C9181FF6CC18EC1F1
:10314000F601438954896589768982859385A485AA
:10315000B58584179507A607B70731F0C6010E9409
:103160004E14882309F457C1812F902F9C01290107
:103170002D803E8017C1D6015B96ED91FC915C9746
:10318000DA01C90119E0B695A795979587951A9523
:10319000D1F774807A9478227FEF872E71E0972E92
:1031A00082229322772009F04EC08114910409F005
:1031B0004AC0D60116964D915D916D917C911997FB
:1031C000411551056105710581F457968D919D91C9
:1031D0000D90BC91A02D0097A105B10549F1F60114
:1031E00086839783A087B1872EC0CF019E012F5F72
:1031F0003F4F0E94281E882309F414C129813A8177
:103200004B815C81D6015B96ED91FC915C9787893F
:10321000803129F088EF9FEFAFEFBFE004C088EF67
:103220009FEFA0E0B0E0281739074A075B0730F0AE
:10323000C6010E945318882331F4EDC0F60126839D
:1032400037834087518780E092E0881999095101BE
:103250008215930508F45C01D6015B96ED91FC9113
:103260005C971696ED90FD900D911C9119978EEF3D
:103270009FEFAFEFBFEFE80EF91E0A1F1B1F05847B
:1032800004C0EE0CFF1C001F111F0A94D2F78685A4
:103290009785A089B189E80EF91E0A1F1B1FE70C4C
:1032A000F11C011D111D90E0A91692E0B90651F51F
:1032B00080919B0290919C02A0919D02B0919E02F0
:1032C0008E159F05A007B10761F48FEF9FEFAFEF59
:1032D000BFEF80939B0290939C02A0939D02B093BA
:1032E0009E028091FE079091FF07B801A70192010D
:1032F0000E943012882309F48EC0A0E0B2E04A0E8A
:103300005B1E3EC08114910409F5F60122853385C8
:103310004485558583899489A589B68928173907F5
:103320004A075B0798F00E94AD1B882309F473C01D
:10333000E0929B02F0929C0200939D0210939E02E9
:103340008091000881608093000808C0C801B7011F
:1033500041E00E940C1C882309F45DC094012250B6
:103360003A4FA9014A0D5B1DD201F90102C08D91AE
:103370008193E417F507D9F7E21BF30B4E0E5F1E9E
:103380002A183B08950140E050E0F60182859385BC
:10339000A485B585820F931FA41FB51F82879387CD
:1033A000A487B587D6011A962D913D914D915C91D8
:1033B0001D972114310409F0DECE53968D919D9115
:1033C0000D90BC91A02D82179307A407B50748F470
:1033D000F601238B348B458B568B848180688483E4
:1033E00011C08091FC059091FD05892B59F08D81CC
:1033F0009E81892B39F0D60114968C9114978068A0
:1034000014968C93F601848183FF0EC0C6010E943E
:103410001415882349F481E090E0D60113969C931B
:103420008E9312971E821D828D819E8126960FB6E5
:10343000F894DEBF0FBECDBFCF91DF911F910F91EA
:10344000FF90EF90DF90CF90BF90AF909F908F90C4
:103450007F905F904F903F902F90089582FD70CEA7
:1034600083CEDF93CF930F92CDB7DEB76983BE01D2
:103470006F5F7F4F41E050E00E947A180F90CF912C
:10348000DF910895DF92EF92FF920F931F93CF93F6
:10349000DF93EC010E945318882309F44EC0EB8D92
:1034A000FC8DEE80FF80088519858EEF9FEFAFEFD2
:1034B000BFEFE80EF91E0A1F1B1F058404C0EE0CA7
:1034C000FF1C001F111F0A94D2F786859785A089DB
:1034D000B189E80EF91E0A1F1B1FD4800894E10869
:1034E000F108010911090BC0C801B7016D0D711D6B
:1034F000811D911D0E94E81B8823F9F0DA94DD20DC
:1035000099F7EB8DFC8D20E032E040E050E005843F
:1035100004C0220F331F441F551F0A94D2F78B8912
:103520009C89AD89BE89820F931FA41FB51F8B8B09
:103530009C8BAD8BBE8B81E001C080E0DF91CF9191
:103540001F910F91FF90EF90DF9008956F927F92FF
:103550008F929F92AF92BF92CF92DF92EF92FF92A3
:103560000F931F93DF93CF93CDB7DEB72B970FB693
:10357000F894DEBF0FBECDBF5C016B01822EDC0173
:1035800015968C91882309F0D2C0CA018E010F5F75
:103590001F4FB8010E940D14882309F4C8C0F6011A
:1035A000838D948DD5015C969C938E935B97168248
:1035B000178210861186D6011A961D921D921D92B1
:1035C0001C921D979924380141C0C6010E944A17D8
:1035D000FC01009709F4ABC085E016950795F794B8
:1035E000E7948A95D1F71E2D1F708081882311F0F2
:1035F000853ED1F4992091F4D50152961C935297AF
:1036000020919B0230919C0240919D0250919E021C
:103610001E962D933D934D935C9351978081882303
:1036200099F49924939421C0C301BF014BE050E069
:103630000E948C25009751F4882D8073803309F403
:1036400076C0C501612F6FC099249394F601E2847E
:10365000F3840485158583899489A589B689E8163C
:10366000F9060A071B0708F4B0CF882D8271823152
:1036700009F05DC0992041F0C50161E00E94F71496
:103680008C01009789F453C0D60115968C91823035
:1036900009F44DC0C6010E94421A882309F447C0AC
:1036A000F501128A0EEF15E080E2D8011D928A958D
:1036B000E9F7D801FE0131968BE001900D9281501F
:1036C000E1F7E091FC05F091FD05309739F0B80184
:1036D000625F7F4FC8014096199509C081E298E268
:1036E000F801918B808B80E098E097878687D801DE
:1036F00050968D919C91519753969C938E9352978F
:1037000059969C938E9358971E968D919C911F97D6
:1037100057969C938E9356970E94AD1B882339F041
:10372000C501F5016289482D0E94E51701C080E0BE
:103730002B960FB6F894DEBF0FBECDBFCF91DF91B1
:103740001F910F91FF90EF90DF90CF90BF90AF90BF
:103750009F908F907F906F900895809100088823AC
:1037600099F140919B0250919C0260919D02709151
:103770009E028091FE079091FF072EEF35E00E9498
:103780003012882319F1409101085091020860918C
:10379000030870910408411551056105710591F008
:1037A0008091FE079091FF072EEF35E00E943012C6
:1037B000882361F010920108109202081092030809
:1037C000109204081092000881E0089580E00895A6
:1037D000EF92FF920F931F937B018C010E94AD1B10
:1037E0008823A9F0EEEFF5E0119287E0EE3FF807AD
:1037F000D9F7E0929B02F0929C0200939D021093F5
:103800009E028091000881608093000881E01F91F2
:103810000F91FF90EF900895DF92EF92FF920F9338
:103820001F937B018C01D42E80919B0290919C026E
:10383000A0919D02B0919E028E159F05A007B10731
:10384000C1F00E94AD1B8823D9F08091FE079091B2
:10385000FF07B801A7012EEF35E00E942A13882345
:1038600079F0E0929B02F0929C0200939D021093EB
:103870009E02809100088D298093000881E001C09C
:1038800080E01F910F91FF90EF90DF9008958F924D
:103890009F92AF92BF92CF92DF92EF92FF920F93DF
:1038A0001F93CF93DF936C01142F7093FF076093E6
:1038B000FE07442321F488249924540140C0453054
:1038C00008F01CC160E070E080E090E040E00E9401
:1038D0000C1C882309F412C1C12FD0E02197FE01EE
:1038E00074E0EE0FFF1F7A95E1F7E250FA4FE254D1
:1038F000FE4F8081EE5BF14090E08F779070892BD6
:1039000009F0FCC0E653FE4F80819181A281B38112
:1039100084369105A105B10508F4F0C064E0CC0F30
:10392000DD1F6A95E1F7CC53D84F88809980AA8033
:10393000BB8081149104A104B10409F4DFC0C50166
:10394000B40140E00E940C1C882309F4D7C0809188
:10395000090690910A068050924009F0CFC020914C
:103960000E06222309F4CAC080910C0690910D0620
:10397000892B09F4C3C080910B06882309F4BEC0CB
:10398000F601228B80910B068483158661E070E03E
:1039900007C04F5FF60145874150483008F0AEC080
:1039A000F6014585848190E09B01042E02C0220F20
:1039B000331F0A94E2F78217930759F720911406F0
:1039C000309115062115310519F040E050E008C08E
:1039D000209122063091230640912406509125061D
:1039E000F6012583368347835087E0900C06F090DC
:1039F0000D0600E010E0E80CF91C0A1D1B1DE38A0F
:103A0000F48A058B168B80910F0690911006918F8A
:103A1000808F60910E0670E080E090E00E94B325F8
:103A20006E0D7F1D801F911FF601628F738F848F33
:103A3000958F20910F063091100655E0220F331F0D
:103A40005A95E1F721503E4F232F3327269540E02A
:103A500050E0260F371F481F591F26873787408B96
:103A6000518B8091110690911206009719F0A0E0F9
:103A7000B0E008C080911E0690911F06A09120061C
:103A8000B091210685017401E21AF30A040B150BAB
:103A9000A8019701280F391F4A1F5B1FF6010584F3
:103AA00004C056954795379527950A94D2F72187F4
:103AB000328743875487253FFFE03F07F0E04F07F9
:103AC000F0E05F0710F48CE006C0255F3F4F4040F8
:103AD000504028F480E1F601878B81E010C080918E
:103AE0002A0690912B06A0912C06B0912D06F60186
:103AF000828F938FA48FB58F80E2EECF80E0DF912D
:103B0000CF911F910F91FF90EF90DF90CF90BF90DA
:103B1000AF909F908F9008954F925F926F927F9297
:103B20008F929F92AF92BF92CF92DF92EF92FF92CD
:103B30000F931F93CF93DF93EC016A017B01280160
:103B40003901423051056105710508F46FC089855E
:103B50009A85AB85BC850196A11DB11D841795077B
:103B6000A607B70708F462C02B893C894D895E8996
:103B70008F89803129F499278F2D7E2D6D2D09C0D5
:103B8000C701B60117E096958795779567951A95C1
:103B9000D1F74B015C01820E931EA41EB51E8091CD
:103BA0009B0290919C02A0919D02B0919E0288166A
:103BB0009906AA06BB0639F0C501B40140E00E948F
:103BC0000C1C882399F18F89803149F4F601F0703B
:103BD000EE0FFF1FE250FA4F518240820DC0F601F6
:103BE000EF77F070EE0FFF1FEE0FFF1FE250FA4F5E
:103BF000408251826282738280910008816080934A
:103C000000088A89823080F08D819E81AF81B885DD
:103C1000880E991EAA1EBB1E80920108909202086F
:103C2000A0920308B092040881E001C080E0DF9117
:103C3000CF911F910F91FF90EF90DF90CF90BF90A9
:103C4000AF909F908F907F906F905F904F9008956E
:103C5000CF92DF92EF92FF920F931F93CF93DF9358
:103C6000EC017A018B01690189859A85AB85BC8558
:103C70000196A11DB11D84179507A607B70708F483
:103C800050C02B893C894D895E898F89803129F408
:103C90009927812F702F6F2D09C0C801B701E7E068
:103CA0009695879577956795EA95D1F7260F371FF3
:103CB000481F591F80919B0290919C02A0919D02E8
:103CC000B0919E02281739074A075B0739F0CA01ED
:103CD000B90140E00E940C1C882319F18F898031C2
:103CE00059F4F701F070EE0FFF1FE250FA4F808198
:103CF0009181A0E0B0E00EC0F701EF77F070EE0F19
:103D0000FF1FEE0FFF1FE250FA4F80819181A281C9
:103D1000B381BF70F60180839183A283B38381E076
:103D200001C080E0DF91CF911F910F91FF90EF9044
:103D3000DF90CF900895AF92BF92CF92DF92EF9233
:103D4000FF920F931F93DF93CF9300D00F92CDB7C5
:103D5000DEB76C017A018B0182E090E0A0E0B0E078
:103D6000F60180839183A283B3835E010894A11C32
:103D7000B11CC601B801A70195010E94281E882325
:103D800019F1C601B801A70100E010E020E030E021
:103D90000E948C1D8823C1F0E980FA800B811C8170
:103DA000F6018789803129F088EF9FEFAFEFBFE000
:103DB00004C088EF9FEFA0E0B0E0E816F9060A071C
:103DC0001B07B8F281E001C080E00F900F900F90C8
:103DD0000F90CF91DF911F910F91FF90EF90DF90A7
:103DE000CF90BF90AF9008954F925F926F927F9265
:103DF0008F929F92AF92BF92CF92DF92EF92FF92FB
:103E00000F931F93DF93CF9300D00F92CDB7DEB700
:103E10006C0149835A836B837C833901EE24FF2430
:103E200087012E010894411C511C812CA2E09A2E7E
:103E3000A12CB12C49815A816B817C81C6019201F0
:103E40000E94281E882351F1D501C401F601058482
:103E500004C0880F991FAA1FBB1F0A94D2F7E80E4F
:103E6000F91E0A1F1B1F29813A814B815C818789BA
:103E7000803129F088EF9FEFAFEFBFE004C088EFFB
:103E80009FEFA0E0B0E0281739074A075B0790F2E0
:103E9000F301E082F1820283138381E00F900F909F
:103EA0000F900F90CF91DF911F910F91FF90EF90A6
:103EB000DF90CF90BF90AF909F908F907F906F904A
:103EC0005F904F9008952F923F924F925F926F9222
:103ED0007F928F929F92AF92BF92CF92DF92EF929A
:103EE000FF920F931F93DF93CF93CDB7DEB72F973A
:103EF0000FB6F894DEBF0FBECDBF1C014A875B87AB
:103F00006C877D873F872E87D9010D911D912D915B
:103F10003C91011511052105310549F04801590170
:103F20000894811C911CA11CB11C198610C0FC01B5
:103F300080809180A280B38019868A859B85AC851C
:103F4000BD850197A105B10511F491E09987D101D3
:103F500019968D919D910D90BC91A02D0196A11D5A
:103F6000B11D8D839E83AF83B8877501640144249E
:103F7000552432018E010F5F1F4FF101818592851B
:103F8000A385B485481659066A067B0608F090C0DA
:103F90008D819E81AF81B8858C159D05AE05BF05CD
:103FA00050F482E0882E912CA12CB12CB2E0CB2EC3
:103FB000D12CE12CF12CC101B701A60198010E947E
:103FC000281E882309F474C089819A81AB81BC8141
:103FD000A70196012F5F3F4F4F4F5F4F0097A105FD
:103FE000B10519F049015A010DC0281939094A09CA
:103FF0005B098A859B85AC85BD85281739074A07EB
:104000005B0759F00894411C511C611C711C0894F9
:10401000C11CD11CE11CF11CB0CFC101A601B7012C
:104020000FEF1FEF2FEF3FE00E948C1D882399F4C4
:104030003FC0260137010894410851086108710802
:10404000C101B301A201970186010E948C1D882342
:1040500079F1730162018C149D04AE04BF0448F32E
:10406000AE85BF854D915D916D917C914115510556
:104070006105710539F0C101950184010E948C1D13
:104080008823B1F0EE85FF8580829182A282B3827F
:10409000F985FF2359F00894811C911CA11CB11CC7
:1040A000D1018D929D92AD92BC92139781E001C097
:1040B00080E02F960FB6F894DEBF0FBECDBFCF9134
:1040C000DF911F910F91FF90EF90DF90CF90BF9005
:1040D000AF909F908F907F906F905F904F903F90A8
:1040E0002F9008951F920F920FB60F9211242F93C5
:1040F0003F938F939F93AF93BF93809109089091C3
:104100000A08A0910B08B0910C0830910D08019697
:10411000A11DB11D232F2D5F2D3720F02D570196A6
:10412000A11DB11D20930D088093090890930A08E2
:10413000A0930B08B0930C08809105089091060895
:10414000A0910708B09108080196A11DB11D8093A8
:10415000050890930608A0930708B0930808BF913C
:10416000AF919F918F913F912F910F900FBE0F9024
:104170001F9018958FB7F8942091090830910A087C
:1041800040910B0850910C088FBFB901CA010895E6
:10419000789484B5826084BD84B5816084BD85B522
:1041A000826085BD85B5816085BDEEE6F0E08081E9
:1041B00081608083E1E8F0E010828081826080830A
:1041C000808181608083E0E8F0E08081816080838D
:1041D000E1EBF0E0808184608083E0EBF0E08081BF
:1041E00081608083E1E9F0E080818260808380816A
:1041F00081608083E0E9F0E0808181608083E1EA92
:10420000F0E0808182608083808181608083E0EA49
:10421000F0E0808181608083E1E2F1E08081826072
:104220008083808181608083E0E2F1E08081816031
:104230008083EAE7F0E0808184608083808182600F
:1042400080838081816080838081806880831092F8
:10425000C1000895CF93DF93482F50E0CA018857DB
:104260009E4FFC0134914E5B5E4FFA01849188238E
:1042700069F190E0880F991FFC01EC50FF4FA59168
:10428000B491FC01E25FFE4FC591D491662351F4D5
:104290002FB7F8948C91932F909589238C938881D4
:1042A00089230BC0623061F42FB7F8948C91932F5F
:1042B000909589238C938881832B88832FBF06C098
:1042C0009FB7F8948C91832B8C939FBFDF91CF91F4
:1042D0000895893009F449C08A30A0F4843051F13E
:1042E000853040F4823079F1833000F5813009F077
:1042F00063C026C0873079F1883098F5863009F0A0
:104300005BC025C08D3009F442C08E3028F48B305C
:10431000B1F18C30C0F52DC0803109F442C081313B
:1043200009F445C08F3009F047C037C08091800044
:104330008F7703C0809180008F7D809380000895E7
:1043400084B58F7702C084B58F7D84BD0895809138
:10435000B0008F7703C08091B0008F7D8093B00054
:104360000895809190008F7707C0809190008F7D95
:1043700003C080919000877F809390000895809182
:10438000A0008F7707C08091A0008F7D03C080912F
:10439000A000877F8093A0000895809120018F77EF
:1043A00003C0809120018F7D80932001089580912A
:1043B0002001877F809320010895FF920F931F9320
:1043C000F62E482F50E0CA0182539E4FFC012491E3
:1043D000CA0188579E4FFC0114914E5B5E4FFA0153
:1043E00004910023C9F0222319F0822F0E94692131
:1043F000E02FF0E0EE0FFF1FE25FFE4FA591B491BA
:104400009FB7F894FF2021F48C911095812302C06E
:104410008C91812B8C939FBF1F910F91FF900895DA
:104420002F923F924F925F926F927F928F929F92C4
:10443000AF92BF92CF92DF92EF92FF920F931F93B2
:10444000DF93CF9300D00F92CDB7DEB73C017C83D2
:104450006B836A015901FA82E9822224332498018C
:10446000241B350B37FF03C0309521953F4FC50105
:104470004B815C81841B950B97FF03C090958195C0
:104480009F4F821793075CF481E0282E312CC601E0
:10449000CB80DC809C838B83C80185015C018B8190
:1044A0009C81A816B90644F4C501AB80BC809C83EE
:1044B0008B83C80186016C012501AB81BC814A1A3E
:1044C0005B0A7801EC18FD08F7FE04C0F094E19453
:1044D000F108F394C016D10624F088248A94982C0D
:1044E00003C0B1E08B2E912CC20162E070E00E940B
:1044F000E6258B0125C0D301ED91FC9121143104F7
:1045000041F00480F581E02DC301B6014B815C814F
:1045100007C00480F581E02DC3016B817C81A60179
:1045200029813A8119950E191F0917FF04C0C80C7B
:10453000D91C040D151DEB81FC813196FC83EB83A6
:104540004B815C81A416B506B4F60F900F900F90C6
:104550000F90CF91DF911F910F91FF90EF90DF901F
:10456000CF90BF90AF909F908F907F906F905F9013
:104570004F903F902F9008954F925F926F927F924D
:104580008F929F92AF92BF92CF92DF92EF92FF9263
:104590000F931F936C015B014A0139012801DC0173
:1045A000ED91FC910484F585E02D87011995D601E4
:1045B000ED91FC91A40141505040440D551D0484DF
:1045C000F585E02DC601B50193011995D601ED9150
:1045D000FC910284F385E02DC601B501A40192018E
:1045E0001995D601ED91FC910894A108B108A60C8B
:1045F000B71C0284F385E02DC601B501A401920128
:1046000019951F910F91FF90EF90DF90CF90BF9081
:10461000AF909F908F907F906F905F904F90089594
:104620002F923F924F925F926F927F928F929F92C2
:10463000AF92BF92CF92DF92EF92FF920F931F93B0
:10464000DF93CF93CDB7DEB72F970FB6F894DEBFC9
:104650000FBECDBF5C015E834D8318870F83FA8642
:10466000E986CB86DC0118968D919C911997681785
:1046700079070CF0A4C01A968D919C911B9748174E
:1046800059070CF09CC0EC2DF0E0FF87EE87CF01BE
:10469000880F991F880F991F8E0F9F1F860F971FD6
:1046A000181619060CF08BC0CF01A3E0880F991FD4
:1046B000AA95E1F7840F951F181619060CF07FC014
:1046C00085E0289FA00111245A8349832B011B01F7
:1046D0001C825C81553011F480E005C0E981FA81CB
:1046E000EC5EFD4F84912C863D866D807E8043017B
:1046F0001B82C82EDD2480FF1CC0D501ED91FC91EA
:10470000BB85B13049F40480F581E02DC501B201CB
:10471000A3012F81388522C00088F189E02DC501D1
:104720006C857D85A4012E853F858901EF80F88405
:1047300023C0E985FA852F813885E217F307E9F070
:10474000D501ED91FC91BB85B13051F40480F58128
:10475000E02DC501B201A30129853A8519950DC047
:104760000088F189E02DC5016C857D85A4012E8529
:104770003F858901E984FA841995EB81EF5FEB832A
:104780002E853F85820E931E0894611C711CE830B3
:1047900021F0D594C7948C2DACCF3C813F5F3C83F6
:1047A0004E855F85240E351E0894411C511C89815D
:1047B0009A8101969A838983363009F08ACF2F96A1
:1047C0000FB6F894DEBF0FBECDBFCF91DF911F9122
:1047D0000F91FF90EF90DF90CF90BF90AF909F90A0
:1047E0008F907F906F905F904F903F902F900895A3
:1047F000CF92EF92FF920F931F93CF93DF93EC0131
:10480000262F6A3061F42C8930E003E0220F331F39
:104810000A95E1F78E859F85820F931F37C06D3013
:10482000C9F16C857D854E855F8508891989EA887F
:10483000FB88CC880E9410232C8986E0289FB00139
:1048400011248C859D85680F791F7D876C878E89E3
:10485000882301F1422F50E08AEF9FEF9C01429F95
:10486000C001439F900D529F900D112428853985DA
:10487000820F931F861797076CF413E0440F551FA0
:104880001A95E1F78E859F85840F951F9F878E87E8
:104890001D861C8681E090E0DF91CF911F910F91E2
:1048A000FF90EF90CF9008950F931F93CF93DF93D6
:1048B000BC018230910510F462E070E0E0911008D4
:1048C000F0911108A0E0B0E040E050E024C0808109
:1048D000918186179707D0F08617970771F4828128
:1048E0009381109729F013969C938E9312972CC066
:1048F000909311088093100827C04115510519F0B5
:104900008417950718F4EF018D01AC01DF01828156
:1049100093819C01F9013097D1F641155105F9F0C9
:10492000CA01861B970B8430910580F48A819B8194
:104930000115110521F0F8019383828304C090933F
:10494000110880931008FE01329645C0FE01E80F61
:10495000F91F619371930297998388833CC080917A
:104960000E0890910F08892B41F48091910290914B
:10497000920290930F0880930E08409193025091F9
:1049800094024115510541F44DB75EB780918F02F5
:1049900090919002481B590B20910E0830910F08FE
:1049A00024173507B0F4CA01821B930B86179707AB
:1049B00080F0AB014E5F5F4F8417950750F0420FB8
:1049C000531F50930F0840930E08F90161937193A0
:1049D00002C0E0E0F0E0CF01DF91CF911F910F9195
:1049E0000895CF93DF939C01009709F48FC0EC01E9
:1049F00022971B821A82609110087091110861152C
:104A0000710581F488819981820F931F20910E088E
:104A100030910F082817390739F5D0930F08C09344
:104A20000E0874C0DB0140E050E0AC17BD0708F190
:104A3000BB83AA83FE0121913191E20FF31FAE17D0
:104A4000BF0779F48D919C911197280F391F2E5F24
:104A50003F4F3983288312968D919C9113979B83A6
:104A60008A834115510571F4D0931108C093100841
:104A70004DC012968D919C911397AD01009711F046
:104A8000DC01D3CFDA011396DC93CE931297FA01AF
:104A900021913191E20FF31FCE17DF0769F488816E
:104AA0009981280F391F2E5F3F4FFA0131832083F0
:104AB0008A819B8193838283E0E0F0E0DB011296A0
:104AC0008D919C911397009719F0BC01FD01F6CFD1
:104AD000AB014E5F5F4FDB018D919C91840F951F61
:104AE00020910E0830910F082817390779F4309774
:104AF00029F4109211081092100802C01382128239
:104B00004250504050930F0840930E08DF91CF91D0
:104B10000895F8940C942126FB01DC0104C08D91CA
:104B20000190801921F441505040C8F7881B990B1F
:104B30000895FC018191861721F08823D9F79927E0
:104B400008953197CF010895FB01DC014150504099
:104B500048F001900D920020C9F701C01D9241500C
:104B60005040E0F70895629FD001739FF001829F4B
:104B7000E00DF11D649FE00DF11D929FF00D839FEC
:104B8000F00D749FF00D659FF00D9927729FB00D89
:104B9000E11DF91F639FB00DE11DF91FBD01CF019C
:104BA00011240895AA1BBB1B51E107C0AA1FBB1FFC
:104BB000A617B70710F0A61BB70B881F991F5A95A9
:104BC000A9F780959095BC01CD01089597FB092E1A
:104BD00007260AD077FD04D0E5DF06D000201AF4BE
:104BE000709561957F4F0895F6F7909581959F4F49
:104BF0000895A1E21A2EAA1BBB1BFD010DC0AA1F1E
:104C0000BB1FEE1FFF1FA217B307E407F50720F035
:104C1000A21BB30BE40BF50B661F771F881F991FB0
:104C20001A9469F760957095809590959B01AC01F9
:104C3000BD01CF010895EE0FFF1F0590F491E02D07
:064C40001994F894FFCF67
:104C460046696C65206E6F7420666F756E643A27D0
:104C560000534420436172642052656164204572AA
:104C6600726F722100496E697469616C697A696E46
:104C76006720534420636172642E2E2E006661699C
:104C86006C656421004F4B2100526177205344200C
:104C9600496E697469616C697A6174696F6E2068BE
:104CA6006173206661696C6564004261636B67725B
:104CB6006F756E642E6C63640046656C69782E6C45
:104CC60063640052616C70682E6C6364002F002070
:104CD60000120800006A028000A000FFFFFFFF002C
:104CE6000000008908EF091D084E082E0877080005
:104CF600000000F823EF09CB0B250D1022090C5BF1
:104D06000CBC22AD0C5F0B00000000460D1A0E5EB7
:104D16000DC00DDE0DAB0D00000000311AEF0900CD
:00000001FF
